:020000040800F2
:10000000008001206D1900087D1800088B18000879
:1000100091180008971800089D18000800000000BB
:10002000000000000000000000000000A31800080D
:10003000B118000800000000BF180008CD18000823
:10004000BD190008BD190008BD190008BD19000838
:10005000BD190008BD190008D9180008BD1900080D
:10006000BD190008BD190008BD190008BD19000818
:10007000BD190008BD190008BD190008BD19000808
:10008000BD190008BD190008BD19000800000000D6
:10009000000000000000000000000000BD19000882
:1000A000BD190008BD190008BD190008BD190008D8
:1000B000BD190008BD190008BD190008BD190008C8
:1000C000BD190008BD190008BD190008BD190008B8
:1000D000BD190008BD190008BD1900080000000086
:1000E000BD190008BD190008BD1900080000000076
:1000F000000000000000000000000000BD19000822
:1001000000000000BD190008BD190008BD19000855
:1001100000000000000000000000000000000000DF
:10012000BD190008BD190008BD190008BD19000857
:10013000BD190008000000000000000000000000E1
:10014000000000000000000000000000BD190008D1
:10015000BD190008BD190008BD190008BD19000827
:10016000BD190008BD1900080000000000000000D3
:10017000000000000000000000000000000000007F
:1001800000000000BD190008000000000000000091
:04019000BD1900088D
:1001A00010B5054C237833B9044B13B10448AFF3B1
:1001B00000800123237010BDE0010020000000003A
:1001C000384A000808B5034B1BB103490348AFF395
:1001D000008008BD00000000E4010020384A00084B
:1001E000034613F8012B002AFBD1181A0138704777
:1001F00001F0FF01102A2BDB10F0070F08D010F8D8
:10020000013B013A8B422DD010F0070F42B3F6D1DB
:10021000F0B441EA012141EA014122F007047FF0F4
:1002200000070023F0E80256083C85EA010586EA4B
:10023000010685FA47F5A3FA87F586FA47F6A5FA87
:1002400087F68EB9EED1F0BC01F0FF0102F0070293
:1002500032B110F8013B013A83EA010313B1F8D13E
:100260000020704701387047002D06BF354603381F
:10027000073815F0010F07D1013015F4807F02BF58
:10028000013015F4C03F0130F0BC0138704700BFA9
:1002900081F0004102E000BF83F0004330B54FEA37
:1002A00041044FEA430594EA050F08BF90EA020FA4
:1002B0001FBF54EA000C55EA020C7FEA645C7FEA37
:1002C000655C00F0E2804FEA5454D4EB5555B8BF5A
:1002D0006D420CDD2C4480EA020281EA030382EACB
:1002E000000083EA010180EA020281EA0303362D5D
:1002F00088BF30BD11F0004F4FEA01314FF4801C30
:100300004CEA113102D0404261EB410113F0004F41
:100310004FEA03334CEA133302D0524263EB4303F8
:1003200094EA050F00F0A780A4F10104D5F1200E96
:100330000DDB02FA0EFC22FA05F2801841F10001F1
:1003400003FA0EF2801843FA05F359410EE0A5F1C5
:1003500020050EF1200E012A03FA0EFC28BF4CF0F6
:10036000020C43FA05F3C01851EBE37101F00045AC
:1003700007D54FF0000EDCF1000C7EEB00006EEBB9
:100380000101B1F5801F1BD3B1F5001F0CD3490843
:100390005FEA30004FEA3C0C04F101044FEA44529A
:1003A00012F5800F80F09A80BCF1004F08BF5FEA21
:1003B000500C50F1000041EB045141EA050130BD01
:1003C0005FEA4C0C404141EB010111F4801FA4F1A4
:1003D0000104E9D191F0000F04BF01460020B1FAF9
:1003E00081F308BF2033A3F10B03B3F120020CDA31
:1003F0000C3208DD02F1140CC2F10C0201FA0CF00F
:1004000021FA02F10CE002F11402D8BFC2F1200C73
:1004100001FA02F120FA0CFCDCBF41EA0C01904029
:10042000E41AA2BF01EB0451294330BD6FEA040472
:100430001F3C1CDA0C340EDC04F11404C4F120025D
:1004400020FA04F001FA02F340EA030021FA04F36F
:1004500045EA030130BDC4F10C04C4F1200220FAC6
:1004600002F001FA04F340EA0300294630BD21FA04
:1004700004F0294630BD94F0000F83F4801306BFCA
:1004800081F480110134013D4EE77FEA645C18BFBE
:100490007FEA655C29D094EA050F08BF90EA020F55
:1004A00005D054EA000C04BF1946104630BD91EA4D
:1004B000030F1EBF0021002030BD5FEA545C05D150
:1004C0004000494128BF41F0004130BD14F580048F
:1004D0003CBF01F5801130BD01F0004545F0FE4103
:1004E00041F470014FF0000030BD7FEA645C1ABF38
:1004F000194610467FEA655C1CBF0B46024650EA6F
:10050000013406BF52EA033591EA030F41F400219A
:1005100030BD00BF90F0000F04BF0021704730B520
:100520004FF4806404F132044FF000054FF00001F5
:1005300050E700BF90F0000F04BF0021704730B5B6
:100540004FF4806404F1320410F0004548BF40428B
:100550004FF000013EE700BF42004FEAE2014FEAE0
:1005600031014FEA02701FBF12F07F4393F07F4FBB
:1005700081F06051704732F07F4208BF704793F0BE
:100580007F4F04BF41F40021704730B54FF46074D1
:1005900001F0004521F000411CE700BF50EA0102D4
:1005A00008BF704730B54FF000050AE050EA01027D
:1005B00008BF704730B511F0004502D5404261EBED
:1005C00041014FF4806404F132045FEA915C3FF42E
:1005D000D8AE4FF003025FEADC0C18BF03325FEACB
:1005E000DC0C18BF033202EBDC02C2F1200300FA7C
:1005F00003FC20FA02F001FA03FE40EA0E0021FAA1
:1006000002F11444BDE600BF70B54FF0FF0C4CF48E
:10061000E06C1CEA11541DBF1CEA135594EA0C0F40
:1006200095EA0C0F00F0DEF82C4481EA030621EA7B
:100630004C5123EA4C5350EA013518BF52EA0335B6
:1006400041F4801143F4801338D0A0FB02CE4FF068
:100650000005E1FB02E506F00042E0FB03E54FF098
:100660000006E1FB03569CF0000F18BF4EF0010E90
:10067000A4F1FF04B6F5007F64F5407404D25FEA8C
:100680004E0E6D4146EB060642EAC62141EA55513F
:100690004FEAC52040EA5E504FEACE2EB4F1FD0C81
:1006A00088BFBCF5E06F1ED8BEF1004F08BF5FEAFF
:1006B000500E50F1000041EB045170BD06F00046B1
:1006C00046EA010140EA020081EA0301B4EB5C045E
:1006D000C2BFD4EB0C0541EA045170BD41F4801156
:1006E0004FF0000E013C00F3AB8014F1360FDEBF7B
:1006F000002001F0004170BDC4F10004203C35DA57
:100700000C341BDC04F11404C4F1200500FA05F3D9
:1007100020FA04F001FA05F240EA020001F000427A
:1007200021F0004110EBD37021FA04F642EB0601F0
:100730005EEA430E08BF20EAD37070BDC4F10C041A
:10074000C4F1200500FA04F320FA05F001FA04F2DE
:1007500040EA020001F0004110EBD37041F10001CA
:100760005EEA430E08BF20EAD37070BDC4F12005D5
:1007700000FA05F24EEA020E20FA04F301FA05F23D
:1007800043EA020321FA04F001F0004121FA04F2E5
:1007900020EA020000EBD3705EEA430E08BF20EAB5
:1007A000D37070BD94F0000F0FD101F000464000EF
:1007B00041EB010111F4801F08BF013CF7D041EA71
:1007C000060195F0000F18BF704703F00046520075
:1007D00043EB030313F4801F08BF013DF7D043EA46
:1007E0000603704794EA0C0F0CEA135518BF95EAFC
:1007F0000C0F0CD050EA410618BF52EA4306D1D183
:1008000081EA030101F000414FF0000070BD50EAA1
:10081000410606BF1046194652EA430619D094EA2B
:100820000C0F02D150EA013613D195EA0C0F05D115
:1008300052EA03361CBF104619460AD181EA030169
:1008400001F0004141F0FE4141F470014FF0000021
:1008500070BD41F0FE4141F4780170BD70B54FF0BC
:10086000FF0C4CF4E06C1CEA11541DBF1CEA13553C
:1008700094EA0C0F95EA0C0F00F0A7F8A4EB05041E
:1008800081EA030E52EA03354FEA013100F0888015
:100890004FEA03334FF0805545EA131343EA1263DE
:1008A0004FEA022245EA111545EA10654FEA002693
:1008B0000EF000419D4208BF964244F1FD0404F54C
:1008C000407402D25B084FEA3202B61A65EB0305A8
:1008D0005B084FEA32024FF480104FF4002CB6EB65
:1008E000020E75EB030E22BFB61A754640EA0C00E5
:1008F0005B084FEA3202B6EB020E75EB030E22BF25
:10090000B61A754640EA5C005B084FEA3202B6EB65
:10091000020E75EB030E22BFB61A754640EA9C0024
:100920005B084FEA3202B6EB020E75EB030E22BFF4
:10093000B61A754640EADC0055EA060E18D04FEAB2
:10094000051545EA16754FEA06164FEAC30343EA52
:1009500052734FEAC2025FEA1C1CC0D111F4801F1F
:100960000BD141EA00014FF000004FF0004CB6E718
:1009700011F4801F04BF01430020B4F1FD0C88BFB7
:10098000BCF5E06F3FF6AFAEB5EB030C04BFB6EBC2
:10099000020C5FEA500C50F1000041EB045170BDB5
:1009A0000EF0004E4EEA113114EB5C04C2BFD4EBE2
:1009B0000C0541EA045170BD41F480114FF0000E66
:1009C000013C90E645EA060E8DE60CEA135594EAE2
:1009D0000C0F08BF95EA0C0F3FF43BAF94EA0C0FE5
:1009E0000AD150EA01347FF434AF95EA0C0F7FF45A
:1009F00025AF104619462CE795EA0C0F06D152EAAE
:100A000003353FF4FDAE1046194622E750EA410691
:100A100018BF52EA43067FF4C5AE50EA41047FF4A2
:100A20000DAF52EA43057FF4EBAE12E74FF0FF3C07
:100A300006E000BF4FF0010C02E000BF4FF0010CD8
:100A40004DF804CD4FEA410C7FEA6C5C4FEA430C51
:100A500018BF7FEA6C5C1BD001B050EA410C0CBFA0
:100A600052EA430C91EA030F02BF90EA020F002002
:100A7000704710F1000F91EA030F58BF994208BF69
:100A800090422CBFD8176FEAE37040F00100704726
:100A90004FEA410C7FEA6C5C02D150EA013C07D17D
:100AA0004FEA430C7FEA6C5CD6D152EA033CD3D0C8
:100AB0005DF8040B704700BF8446104662468C46C2
:100AC0001946634600E000BF01B5FFF7B7FF0028F5
:100AD00048BF10F1000F01BD4DF808EDFFF7F4FF1E
:100AE0000CBF012000205DF808FB00BF4DF808EDA9
:100AF000FFF7EAFF34BF012000205DF808FB00BFCC
:100B00004DF808EDFFF7E0FF94BF012000205DF8ED
:100B100008FB00BF4DF808EDFFF7CEFF94BF0120A2
:100B200000205DF808FB00BF4DF808EDFFF7C4FF9B
:100B300034BF012000205DF808FB00BF4FEA410CE4
:100B40007FEA6C5C02D150EA013C0AD14FEA430CC7
:100B50007FEA6C5C02D152EA033C02D14FF0000004
:100B600070474FF0010070474FEA410212F5001242
:100B700015D211D56FF47873B3EB625212D94FEAE4
:100B8000C12343F0004343EA505311F0004F23FACE
:100B900002F018BF404270474FF00000704750EA23
:100BA000013005D111F0004008BF6FF000407047E0
:100BB0004FF00000704700BF4A0011D212F500123A
:100BC00011D20DD56FF47873B3EB62520ED44FEAA5
:100BD000C12343F0004343EA505323FA02F0704725
:100BE0004FF00000704750EA013002D14FF0FF3063
:100BF00070474FF0000070474FEA4102B2F1E04306
:100C000024BFB3F5001CDCF1FE5C0DD901F0004CF3
:100C10004FEAC0024CEA5070B2F1004F40EB830043
:100C200008BF20F00100704711F0804F21D113F16F
:100C30003872BCBF01F00040704741F480114FEAA8
:100C40005252C2F11802C2F1200C10FA0CF320FA31
:100C500002F018BF40F001004FEAC1234FEAD3234E
:100C600003FA0CFC40EA0C0023FA02F34FEA4303B8
:100C7000CCE77FEA625307D150EA01331EBF4FF041
:100C8000FE4040F44000704701F0004040F0FE405C
:100C900040F40000704700BF53B94AB9002908BFAB
:100CA00000281CBF4FF0FF314FF0FF3000F072B949
:100CB000ADF1080C6DE904CE00F006F8DDF804E0B3
:100CC000DDE9022304B070472DE9F047089E044691
:100CD0008846002B4BD18A42154667D9B2FA82F278
:100CE0004AB1C2F1200701FA02F320FA07F7954052
:100CF00047EA030894404FEA154E230CB8FBFEF771
:100D00001FFA85FC0EFB178843EA084307FB0CF12A
:100D1000994209D9EB1807F1FF3080F01B81994205
:100D200040F21881023F2B445B1AA4B2B3FBFEF0E1
:100D30000EFB103344EA034400FB0CFCA44509D924
:100D40002C1900F1FF3380F00781A44540F20481A3
:100D500002382C4440EA0740A4EB0C0400271EB1E3
:100D6000D4400023C6E900433946BDE8F0878B42F2
:100D700009D9002E00F0EB800027C6E900013846B3
:100D80003946BDE8F087B3FA83F7002F47D18B428D
:100D900002D3824200F2FA80841A61EB030301203D
:100DA0009846002EE0D0C6E90048DDE702B9FFDE34
:100DB000B2FA82F2002A40F08F80491B4FEA154EAA
:100DC0001FFA85F80127B1FBFEFC230C0EFB1C115A
:100DD00043EA014308FB0CF1994207D9EB180CF1E7
:100DE000FF3002D2994200F2CD808446591AA3B254
:100DF000B1FBFEF00EFB101443EA044408FB00F8BC
:100E0000A04507D92C1900F1FF3302D2A04500F20A
:100E1000B6801846A4EB080440EA0C409FE7C7F1EF
:100E2000200CBB4022FA0CFE4EEA030E01FA07F436
:100E300020FA0CF521FA0CF34FEA1E482543B3FBC8
:100E4000F8F92C0C08FB19331FFA8EFA44EA034315
:100E500009FB0AF49C4202FA07F200FA07F10BD9E7
:100E60001EEB030309F1FF3080F087809C4240F2C3
:100E70008480A9F1020973441B1BADB2B3FBF8F0E7
:100E800008FB103345EA034400FB0AFAA24508D9DF
:100E90001EEB040400F1FF336BD2A24569D902387E
:100EA000744440EA0940A0FB0289A4EB0A044C45C3
:100EB000C2464B4654D351D0002E69D0B1EB0A053F
:100EC00064EB030404FA0CFCFD40FC404CEA05050D
:100ED000C6E90054002747E7C2F1200320FA03F7D0
:100EE000954001FA02F021FA03F34FEA154E384318
:100EF000010CB3FBFEF71FFA85F80EFB173341EA2E
:100F0000034107FB08F38B4204FA02F407D969187E
:100F100007F1FF3C2FD28B422DD9023F2944CB1A37
:100F200081B2B3FBFEF00EFB103341EA034100FB3C
:100F300008F38B4207D9691800F1FF3C17D28B42A6
:100F400015D902382944C91A40EA07473BE7374612
:100F5000304609E70746E7E61846FBE64145ABD2CF
:100F6000B8EB020A69EB0E0201381346A4E76046AB
:100F7000E9E7184695E76746D1E781467CE70238FE
:100F80002C4447E7ACF1020C2B442FE7384608E726
:100F90003746E9E6704700BF80B500AF0C4B1868D4
:100FA0000C4B1B880122194601F04AF80A23184607
:100FB00000F07AF9064B1868064B1B880022194688
:100FC00001F03EF83C2000F06FF900BF80BD00BF8B
:100FD000FC0100200202002080B582B000AF034671
:100FE000FB71FB79002B08D00A4B18680A4B1B8851
:100FF0000122194601F024F807E0064B1868064B59
:101000001B880022194601F01BF800BF0837BD46B7
:1010100080BD00BFFC0100200002002080B584B02C
:1010200000AF0346FB71FB7903F00F03FB73FB7901
:101030001B09BB73614B1B78012B5AD1604B18689D
:10104000604B1988FB7B03F00103DBB21A4600F00A
:10105000F7FF5B4B18685C4B1988FB7B03F00203BE
:10106000DBB21A4600F0ECFF554B1868574B198855
:10107000FB7B03F00403DBB21A4600F0E1FF504BA8
:101080001868534B1988FB7B03F00803DBB21A4640
:1010900000F0D6FF4F4B18684F4B1988BB7B03F00D
:1010A0000103DBB21A4600F0CBFF4A4B18684B4BEA
:1010B0001988BB7B03F00203DBB21A4600F0C0FFC5
:1010C000444B1868464B1988BB7B03F00403DBB222
:1010D0001A4600F0B5FF3F4B1868424B1988BB7B9E
:1010E00003F00803DBB21A4600F0AAFFFFF754FF33
:1010F0005FE0324B1B78022B5BD1364B1868364BC6
:101100001988BB7B03F00103DBB21A4600F098FF9D
:10111000304B1868314B1988BB7B03F00203DBB2FC
:101120001A4600F08DFF2B4B18682D4B1988BB7B9E
:1011300003F00403DBB21A4600F082FF254B186867
:10114000284B1988BB7B03F00803DBB21A4600F07A
:1011500077FFFFF721FF1F4B18681F4B1988FB7B98
:1011600003F00103DBB21A4600F06AFF194B18685E
:101170001A4B1988FB7B03F00203DBB21A4600F01E
:101180005FFF144B1868164B1988FB7B03F00403B0
:10119000DBB21A4600F054FF0E4B1868114B198849
:1011A000FB7B03F00803DBB21A4600F049FFFFF7B0
:1011B000F3FE00BF1037BD4680BD00BF0000002019
:1011C00004020020080200200A0200200C02002075
:1011D0000E0200201002002014020020160200203F
:1011E000180200201A02002090B589B000AF3A1D05
:1011F00007F108031146184601F07CFB7B69002BC0
:1012000003D101F063FBF86104E001F05FFB0346EA
:101210005B00FB61F869FFF77DF921A3D3E90023A7
:10122000FFF7F2F903460C4618462146FFF7C4FCC7
:101230000346FB61184B1B6C174A43F0020313640F
:10124000164B1B68154A23F010031360134B1B68E1
:10125000124A23F001031360104B1B680F4A23F05E
:10126000040313600D4B1B680C4A43F00803136022
:101270000A4AFB69013B9362084B0922DA62074B79
:1012800001225A61054B1B69044A23F001031361D3
:1012900000BF2437BD4690BD003802400004004026
:1012A0008DEDB5A0F7C6B03E80B483B000AF7860D6
:1012B0000E4A7B68013BD3620C4B1B690B4A23F03F
:1012C00001031361094B1B68084A43F001031360D3
:1012D00000BF064B1B6903F00103012BF9D100BFCE
:1012E0000C37BD465DF8047B704700BF000400402A
:1012F00080B582B000AF0346FB710020FFF76CFEA3
:10130000FB791846FFF78AFE00BF0837BD4680BD4F
:1013100080B582B000AF0346FB710120FFF75CFE91
:10132000FB791846FFF77AFE00BF0837BD4680BD3F
:1013300080B584B000AFF8607B600B467B811346BC
:101340003B812A4AFB681360294A7B891380294A1A
:101350003B891380284A7B681360284A3B8B1380A3
:10136000274ABB8B1380274A3B8C1380264ABB8CB1
:101370001380264ABB6A1360254ABB8D1380254A19
:101380003B8E1380244ABB8E1380244A3B8F1380EC
:10139000FFF72AFF224B01221A70224B38221A70C3
:1013A000142000F07FFB3020FFF7A2FF052000F0A3
:1013B00079FB3020FFF79CFF012000F073FB302009
:1013C000FFF796FF012000F06DFB3820FFF790FF3C
:1013D0000F20FFF78DFF0120FFF78AFF022000F0AA
:1013E00061FB00BF1037BD4680BD00BFFC0100207F
:1013F0000002002002020020040200200802002057
:101400000A0200200C0200200E0200201002002020
:101410001402002016020020180200201A020020E8
:10142000000000200100002080B584B000AF78608B
:101430000023FB7309E0FB7B7A6813441B78184692
:10144000FFF766FFFB7B0133FB73FB7B0F2B05D89C
:10145000FB7B7A6813441B78002BECD100BF10375C
:10146000BD4680BD80B584B000AF03460A46FB711F
:101470001346BB71BB79013BDBB203F00F03FB7377
:10148000FB79012B08D1FB7B63F07F03FB73FB7BB4
:101490001846FFF72DFF07E0FB7B63F03F03FB736C
:1014A000FB7B1846FFF724FF00BF1037BD4680BD09
:1014B00080B500AF01210120FFF7D4FF00BF80BD40
:1014C00080B500AF0120FFF713FF032000F0EAFA18
:1014D00000BF80BD90B589B002AF87ED010A3860CA
:1014E0007868FFF739F803460C4607F10800CDE9A4
:1014F00000343A68054901F0BDFE07F108031846BB
:10150000FFF792FF00BF1C37BD4690BD544A00084C
:1015100090B58BB00AAF00F053FA00F067F800F016
:10152000C5F84FF4007308934FF48073079380233A
:10153000069340230593284B04934FF400430393F1
:101540004FF4804302934FF4005301934FF48053C0
:101550000093224B022201211F48FFF7E9FE204B96
:101560001B6807EE903AF8EEE77A17EE900AFEF75E
:10157000F3FF17A3D3E90023FFF746F803460C4611
:1015800018462146FFF738FB0246164B1A60144BEB
:101590001B68B3F5857F04DA114B1B6813F5857F53
:1015A00002DC0F4B00221A60FFF78AFFFFF780FF73
:1015B0000D48FFF739FF0B4BD3ED007A0220B0EE58
:1015C000670AFFF787FF322000F06CFAC7E700BF19
:1015D00094298B6775A7F53F00080240000402407C
:1015E0001C0200202C0200205C4A000880B594B048
:1015F00000AF07F1200330220021184601F0D6F990
:1016000007F10C0300221A605A609A60DA601A61CE
:101610000023BB60234B1B6C224A43F080531364AE
:10162000204B1B6C03F08053BB60BB6800237B60C6
:101630001D4B1B6823F440431B4A43F400431360D3
:10164000194B1B6803F440437B607B6802233B62B9
:101650000123FB6210233B630023BB6307F12003DC
:10166000184600F01FFD0346002B01D000F0D6F80D
:101670000F23FB6000233B6100237B610023BB61E0
:101680000023FB6107F10C030021184600F07AFFEC
:101690000346002B01D000F0C1F800BF5037BD4613
:1016A00080BD00BF003802400070004080B588B0A7
:1016B00000AF07F10C0300221A605A609A60DA60EA
:1016C0001A610023BB603B4B1B6B3A4A43F0040397
:1016D0001363384B1B6B03F00403BB60BB68002330
:1016E0007B60344B1B6B334A43F001031363314B74
:1016F0001B6B03F001037B607B6800233B602D4B79
:101700001B6B2C4A43F0020313632A4B1B6B03F041
:1017100002033B603B68002240F2C331264800F0E0
:101720008FFC00224FF47041244800F089FC40F205
:10173000C333FB6001233B6100237B610023BB615A
:1017400007F10C0319461C4800F0E0FA0123FB6086
:101750001B4B3B6100237B6107F10C0319461948C1
:1017600000F0D4FA0223FB6000233B6100237B617D
:1017700007F10C031946134800F0C8FA4FF4704300
:10178000FB6001233B6100237B610023BB6107F108
:101790000C031946094800F0B9FA0022012106207D
:1017A00000F07DFA062000F096FA00BF2037BD4613
:1017B00080BD00BF00380240000802400004024023
:1017C000000011100000024080B582B000AF034657
:1017D000FB80FB88012B18D102210E4800F018FC79
:1017E0000346002B05D10C4B1B6801330A4A1360DA
:1017F0000BE00221074800F00BFC0346012B04D14B
:10180000054B1B68013B044A136000BF0837BD4607
:1018100080BD00BF000002401C02002080B400AF69
:1018200000BFBD465DF8047B7047000080B483B004
:1018300000AF00237B60104B5B6C0F4A43F4804386
:1018400053640D4B5B6C03F480437B607B68002327
:101850003B60094B1B6C084A43F080531364064BF2
:101860001B6C03F080533B603B6800BF0C37BD46E8
:101870005DF8047B704700BF0038024080B400AFC1
:1018800000BFBD465DF8047B704780B400AFFEE743
:1018900080B400AFFEE780B400AFFEE780B400AFD5
:1018A000FEE780B400AF00BFBD465DF8047B704723
:1018B00080B400AF00BFBD465DF8047B704780B4C4
:1018C00000AF00BFBD465DF8047B704780B500AF38
:1018D00000F0C8F800BF80BD80B500AF012000F067
:1018E000C9FB00BF80BD000080B584B000AF786048
:1018F000114B1B68002B02D10F4B104A1A600E4B84
:101900001B68FB600C4B1A687B6813446A46934261
:1019100007D901F021F802460C2313604FF0FF3382
:1019200006E0054B1A687B681344034A1360FB68A2
:1019300018461037BD4680BD200200203802002026
:1019400080B400AF084BD3F88830074A43F47003E3
:10195000C2F88830044B4FF000629A6000BFBD4669
:101960005DF8047B704700BF00ED00E0DFF834D085
:10197000002103E00C4B5B58435004310B480C4BE7
:1019800042189A42F6D30B4A02E0002342F8043B85
:10199000094B9A42F9D3FFF7D3FF00F0E3FFFFF7BB
:1019A000B7FD704700800120E84C000800000020CF
:1019B000E0010020E001002038020020FEE70000E6
:1019C00080B500AF0E4B1B680D4A43F400731360E3
:1019D0000B4B1B680A4A43F480631360084B1B6877
:1019E000074A43F480731360032000F04DF9002090
:1019F00000F008F8FFF71AFF0023184680BD00BF6B
:101A0000003C024080B582B000AF7860124B1A688B
:101A1000124B1B7819464FF47A73B3FBF1F3B2FB08
:101A2000F3F3184600F065F90346002B01D00123BB
:101A30000EE07B680F2B0AD8002279684FF0FF3048
:101A400000F02DF9064A7B681360002300E00123B3
:101A500018460837BD4680BD040000200C00002059
:101A60000800002080B400AF064B1B781A46064BD6
:101A70001B681344044A136000BFBD465DF8047B35
:101A8000704700BF0C0000203002002080B400AF7F
:101A9000034B1B681846BD465DF8047B704700BFCA
:101AA0003002002080B584B000AF7860FFF7EEFF11
:101AB000B8607B68FB60FB68B3F1FF3F05D0094B62
:101AC0001B781A46FB681344FB6000BFFFF7DEFF7C
:101AD0000246BB68D31AFA689A42F7D800BF10379B
:101AE000BD4680BD0C00002080B485B000AF78609A
:101AF0007B6803F00703FB600C4BDB68BB60BA68D4
:101B00004FF6FF031340BB60FB681A02BB68134328
:101B100043F0BF6343F40033BB60044ABB68D36047
:101B200000BF1437BD465DF8047B704700ED00E050
:101B300080B400AF044BDB681B0A03F007031846B0
:101B4000BD465DF8047B704700ED00E080B483B0D3
:101B500000AF0346FB7197F90730002B0BDBFB79D5
:101B600003F01F02074997F907305B09012000FACB
:101B700002F241F8232000BF0C37BD465DF8047B1C
:101B8000704700BF00E100E080B483B000AF0346BF
:101B90003960FB7197F90730002B0ADB3B68DAB23A
:101BA0000C4997F907301201D2B20B4483F8002395
:101BB0000AE03B68DAB20849FB7903F00F03043B03
:101BC0001201D2B20B441A7600BF0C37BD465DF845
:101BD000047B704700E100E000ED00E080B489B0D4
:101BE00000AFF860B9607A60FB6803F00703FB613F
:101BF000FB69C3F10703042B28BF0423BB61FB6906
:101C00000433062B02D9FB69033B00E000237B6110
:101C10004FF0FF32BB6902FA03F3DA43BB681A40A4
:101C20007B699A404FF0FF317B6901FA03F3D94396
:101C30007B680B40134318462437BD465DF8047B90
:101C40007047000080B582B000AF78607B68013BD0
:101C5000B3F1807F01D301230FE00A4A7B68013B87
:101C600053600F214FF0FF30FFF78EFF054B00222E
:101C70009A60044B07221A60002318460837BD46B5
:101C800080BD00BF10E000E080B582B000AF78609A
:101C90007868FFF729FF00BF0837BD4680BD80B5D3
:101CA00086B000AF0346B9607A60FB7300237B61A6
:101CB000FFF73EFF78617A68B9687869FFF78EFFB1
:101CC000024697F90F3011461846FFF75DFF00BF37
:101CD0001837BD4680BD80B582B000AF0346FB71AA
:101CE00097F907301846FFF731FF00BF0837BD46A8
:101CF00080BD80B582B000AF78607868FFF7A2FF42
:101D0000034618460837BD4680BD000080B489B040
:101D100000AF7860396000237B6100233B610023C2
:101D2000BB610023FB6159E10122FB6902FA03F365
:101D30007B613B681B687A6913403B613A697B6948
:101D40009A4240F048813B685B68012B0BD03B68AE
:101D50005B68022B07D03B685B68112B03D03B68A4
:101D60005B68122B30D17B689B68BB61FB695B00B1
:101D7000032202FA03F3DB43BA691340BB613B68F9
:101D8000DA68FB695B0002FA03F3BA691343BB61CB
:101D90007B68BA699A607B685B68BB610122FB69FA
:101DA00002FA03F3DB43BA691340BB613B685B682B
:101DB0001B0903F00102FB6902FA03F3BA6913433A
:101DC000BB617B68BA695A607B68DB68BB61FB6991
:101DD0005B00032202FA03F3DB43BA691340BB61E1
:101DE0003B689A68FB695B0002FA03F3BA69134324
:101DF000BB617B68BA69DA603B685B68022B03D021
:101E00003B685B68122B23D1FB69DA087B680832D8
:101E100053F82230BB61FB6903F007039B000F22DC
:101E200002FA03F3DB43BA691340BB613B681A69EA
:101E3000FB6903F007039B0002FA03F3BA6913433B
:101E4000BB61FB69DA087B680832B96943F8221084
:101E50007B681B68BB61FB695B00032202FA03F32A
:101E6000DB43BA691340BB613B685B6803F0030264
:101E7000FB695B0002FA03F3BA691343BB617B6839
:101E8000BA691A603B685B6803F08053002B00F06E
:101E9000A2800023FB60564B5B6C554A43F48043A1
:101EA0005364534B5B6C03F48043FB60FB68514A03
:101EB000FB699B08023352F82330BB61FB6903F0D6
:101EC00003039B000F2202FA03F3DB43BA691340BA
:101ED000BB617B68484A934219D07B68474A93426A
:101EE00013D07B68464A93420DD07B68454A9342A3
:101EF00007D07B68444A934201D1042308E00723BA
:101F000006E0032304E0022302E0012300E00023B3
:101F1000FA6902F0030292009340BA691343BB616D
:101F20003449FB699B080233BA6941F82320374BD7
:101F30001B68BB613B69DB43BA691340BB613B680B
:101F40005B6803F48033002B03D0BA693B69134309
:101F5000BB612E4ABB6913602C4B5B68BB613B695C
:101F6000DB43BA691340BB613B685B6803F4003331
:101F7000002B03D0BA693B691343BB61234ABB6999
:101F80005360224B9B68BB613B69DB43BA691340DA
:101F9000BB613B685B6803F48013002B03D0BA6914
:101FA0003B691343BB61194ABB699360174BDB68FC
:101FB000BB613B69DB43BA691340BB613B685B684B
:101FC00003F40013002B03D0BA693B691343BB61D0
:101FD0000E4ABB69D360FB690133FB61FB690F2BC0
:101FE0007FF6A2AE00BF2437BD465DF8047B704784
:101FF0000038024000380140000002400004024066
:1020000000080240000C024000100240003C014069
:1020100080B485B000AF78600B467B807B681A691E
:102020007B881340002B02D00123FB7301E00023C7
:10203000FB73FB7B18461437BD465DF8047B704785
:1020400080B483B000AF78600B467B8013467B7012
:102050007B78002B03D07A887B689A6103E07B88C9
:102060001A047B689A6100BF0C37BD465DF8047B9B
:102070007047000080B582B000AF0346FB80084B7C
:102080005A69FB881340002B06D0054AFB88536130
:10209000FB881846FFF798FB00BF0837BD4680BD98
:1020A000003C014080B586B000AF78607B68002BB3
:1020B00001D101235BE27B681B6803F00103002B65
:1020C00075D0A34B9B6803F00C03042B0CD0A04BE2
:1020D0009B6803F00C03082B12D19D4B5B6803F443
:1020E0008003B3F5800F0BD1994B1B6803F40033C9
:1020F000002B5BD07B685B68002B57D1012336E255
:102100007B685B68B3F5803F06D1914B1B68904AB2
:1021100043F4803313601DE07B685B68B3F5A02F48
:102120000CD18B4B1B688A4A43F480231360884B85
:102130001B68874A43F4803313600BE0844B1B68B1
:10214000834A23F480331360814B1B68804A23F455
:10215000802313607B685B68002B13D0FFF796FC2D
:10216000386108E0FFF792FC02463B69D31A642B02
:1021700001D90323FBE1764B1B6803F40033002BEA
:10218000F0D014E0FFF782FC386108E0FFF77EFC36
:1021900002463B69D31A642B01D90323E7E16C4B58
:1021A0001B6803F40033002BF0D100E000BF7B6814
:1021B0001B6803F00203002B63D0654B9B6803F0A0
:1021C0000C03002B0BD0624B9B6803F00C03082B15
:1021D0001CD15F4B5B6803F48003002B16D15C4B72
:1021E0001B6803F00203002B05D07B68DB68012B22
:1021F00001D00123BBE1564B1B6823F0F8027B683A
:102200001B69DB00524913430B603AE07B68DB68D3
:10221000002B20D04F4B01221A60FFF737FC3861AA
:1022200008E0FFF733FC02463B69D31A022B01D9C1
:1022300003239CE1464B1B6803F00203002BF0D004
:10224000434B1B6823F0F8027B681B69DB004049A5
:1022500013430B6015E03F4B00221A60FFF716FC9A
:10226000386108E0FFF712FC02463B69D31A022BE3
:1022700001D903237BE1364B1B6803F00203002BDB
:10228000F0D17B681B6803F00803002B30D07B681B
:102290005B69002B16D0304B01221A60FFF7F6FB6A
:1022A000386108E0FFF7F2FB02463B69D31A022BC4
:1022B00001D903235BE1264B5B6F03F00203002B84
:1022C000F0D015E0244B00221A60FFF7DFFB3861E5
:1022D00008E0FFF7DBFB02463B69D31A022B01D96A
:1022E000032344E11A4B5B6F03F00203002BF0D190
:1022F0007B681B6803F00403002B00F0A080002320
:10230000FB75134B1B6C03F08053002B0FD1002384
:10231000BB600F4B1B6C0E4A43F0805313640C4B95
:102320001B6C03F08053BB60BB680123FB750B4B38
:102330001B6803F48073002B21D1084B1B68074AEC
:1023400043F480731360FFF7A1FB386111E000BF15
:102350000038024000004742800E474200700040B3
:10236000FFF794FB02463B69D31A022B01D90323E2
:10237000FDE0814B1B6803F48073002BF0D07B6879
:102380009B68012B06D17D4B1B6F7C4A43F00103F8
:1023900013671CE07B689B68052B0CD1774B1B6F88
:1023A000764A43F004031367744B1B6F734A43F080
:1023B000010313670BE0714B1B6F704A23F001039D
:1023C00013676E4B1B6F6D4A23F0040313677B6822
:1023D0009B68002B15D0FFF759FB38610AE0FFF727
:1023E00055FB02463B69D31A41F28832934201D928
:1023F0000323BCE0614B1B6F03F00203002BEED004
:1024000014E0FFF743FB38610AE0FFF73FFB0246A9
:102410003B69D31A41F28832934201D90323A6E0E3
:10242000564B1B6F03F00203002BEED1FB7D012BFB
:1024300005D1524B1B6C514A23F0805313647B68C7
:102440009B69002B00F092804C4B9B6803F00C03BF
:10245000082B5CD07B689B69022B41D1484B002242
:102460001A60FFF713FB386108E0FFF70FFB024625
:102470003B69D31A022B01D9032378E03F4B1B6839
:1024800003F00073002BF0D17B68DA697B681B6A6C
:102490001A437B685B6A9B011A437B689B6A5B08F3
:1024A000013B1B041A437B68DB6A1B063349134359
:1024B0004B60334B01221A60FFF7E8FA386108E0FD
:1024C000FFF7E4FA02463B69D31A022B01D9032332
:1024D0004DE02A4B1B6803F00073002BF0D045E061
:1024E000274B00221A60FFF7D1FA386108E0FFF7A6
:1024F000CDFA02463B69D31A022B01D9032336E0F9
:102500001E4B1B6803F00073002BF0D12EE07B689C
:102510009B69012B01D1012329E0184B5B68FB600B
:10252000FB6803F480027B68DB699A421CD1FB687C
:1025300003F03F027B681B6A9A4215D1FA6847F69E
:10254000C07313407A68526A93420DD1FB6803F45A
:1025500040327B689B6A9A4206D1FB6803F0706246
:102560007B68DB6A9A4201D0012300E00023184611
:102570001837BD4680BD00BF0070004000380240E3
:102580006000474280B584B000AF786039607B68F6
:10259000002B01D10123CCE0684B1B6803F00F0333
:1025A0003A689A420CD9654B3A68D2B21A70634BBA
:1025B0001B6803F00F033A689A4201D00123B8E088
:1025C0007B681B6803F00203002B20D07B681B682C
:1025D00003F00403002B05D0594B9B68584A43F481
:1025E000E05393607B681B6803F00803002B05D061
:1025F000534B9B68524A43F460439360504B9B6833
:1026000023F0F0027B689B684D4913438B607B6825
:102610001B6803F00103002B44D07B685B68012B2F
:1026200007D1474B1B6803F40033002B19D101235A
:102630007FE07B685B68022B03D07B685B68032BC1
:1026400007D13F4B1B6803F00073002B09D1012316
:102650006FE03B4B1B6803F00203002B01D1012309
:1026600067E0374B9B6823F003027B685B68344963
:1026700013438B60FFF70AFAF8600AE0FFF706FAE7
:102680000246FB68D31A41F28832934201D90323F0
:102690004FE02B4B9B6803F00C027B685B689B0050
:1026A0009A42EBD1254B1B6803F00F033A689A421C
:1026B0000CD2224B3A68D2B21A70204B1B6803F03E
:1026C0000F033A689A4201D0012332E07B681B680D
:1026D00003F00403002B08D0194B9B6823F4E0524D
:1026E0007B68DB68164913438B607B681B6803F0CB
:1026F0000803002B09D0124B9B6823F460427B68CF
:102700001B69DB000E4913438B6000F021F8014682
:102710000B4B9B681B0903F00F030A4AD35C21FA99
:1027200003F3094A1360094B1B681846FFF76AF95F
:10273000002318461037BD4680BD00BF003C024054
:1027400000380240644A000804000020080000200D
:10275000F0B585B000AF00237B600023FB60002351
:102760003B600023BB60504B9B6803F00C03042BC1
:1027700007D0082B08D0002B40F08D804B4BBB605E
:102780008CE04B4BBB6089E0474B5B6803F03F0339
:102790007B60454B5B6803F48003002B23D0424BE6
:1027A0005B689B094FF0000440F2FF114FF00002FC
:1027B00003EA010504EA02063D4A02FB06F1002293
:1027C00002FB05F20A443A49A5FB010153181946D8
:1027D0007B684FF000041A462346FEF75DFA034675
:1027E0000C46FB6049E0304B5B689B094FF00004EE
:1027F00040F2FF114FF0000203EA010504EA02066D
:10280000294632464FF000034FF00004540144EAD9
:10281000D1644B0119462246491B62EB06024FF078
:1028200000034FF00004940144EA91648B015B1AA9
:1028300064EB02044FF000014FF00002E20042EAB4
:102840005372D9000B4614465B1944EB06044FF053
:1028500000014FF00002A20242EA935299020B4695
:102860001446184621467B684FF000041A4623465A
:10287000FEF712FA03460C46FB600B4B5B681B0C21
:1028800003F0030301335B003B60FA683B68B2FB73
:10289000F3F3BB6002E0054BBB6000BFBB681846AA
:1028A0001437BD46F0BD00BF003802400024F400DC
:1028B00040787D0180B400AF034B1B681846BD46CD
:1028C0005DF8047B704700BF0400002080B500AFB6
:1028D000FFF7F0FF0146054B9B689B0A03F00703D7
:1028E000034AD35C21FA03F3184680BD0038024046
:1028F000744A000880B483B000AF786039607B68A8
:102900000F221A60124B9B6803F003027B685A6027
:102910000F4B9B6803F0F0027B689A600C4B9B683E
:1029200003F4E0527B68DA60094B9B68DB0803F430
:10293000E0527B681A61074B1B6803F00F023B688B
:102940001A6000BF0C37BD465DF8047B704700BFBE
:1029500000380240003C0240014B1868704700BF3D
:102960001000002070B50D4E0D4CA41BA4100025C6
:10297000A54209D10B4E0C4C02F05EF8A41BA4102A
:102980000025A54205D170BD56F825309847013580
:10299000EEE756F8253098470135F2E7E04C00089D
:1029A000E04C0008E04C0008E44C000802440346F8
:1029B000934200D1704703F8011BF9E72DE9FF4767
:1029C00055EC104B0D9FDDF830A0002D0E469146C2
:1029D0001946B8BF22462B4627F02007BBBF05F19A
:1029E00000431D4600232D23B8BF1446462F0B700D
:1029F00004D0452F00D10136022100E0032103ABB2
:102A0000019302AB00933246534645EC104B00F065
:102A1000DFFC472F804602D119F0010F26D0462F48
:102A200008EB060911D198F80030302B0AD10022AA
:102A3000002320462946FEF74FF818B9C6F10106D3
:102A4000CAF80060DAF800309944002200232046DA
:102A50002946FEF741F838B93022039B4B4505D291
:102A6000591C03911A70F8E7CDF80C90039B0E9A4D
:102A7000A3EB08034046136004B0BDE8F087F7B548
:102A800000290446BABF49422D232B23092904F803
:102A9000022B437020DD0DF107031F460A2691FB30
:102AA000F6F506FB15113031092D03F8011C03F171
:102AB000FF32294609DC3031023B02F8011CBB42DF
:102AC000224604D3101A03B0F0BD1346E7E713F80B
:102AD000012B04F8012BF2E7302319448370021D07
:102AE000C170EFE72DE9F04F8DB00C46DDF858804E
:102AF00016461F46054601F023FA0368049318465C
:102B0000FDF76EFB00230A93D8F8003005900733D9
:102B100023F0070303F1080294F818A0D4F800B0DA
:102B2000C8F80020D3E90023C4E91223D4E91289AC
:102B300029F000430793CDF818804FF0FF32A74BE0
:102B4000DDE90601FDF7FAFF70BB4FF0FF32A34B42
:102B5000DDE90601FDF7D4FF30BB0022002340462B
:102B60004946FDF7C3FF10B12D2384F843309C4A3A
:102B70009C4BBAF1470F8CBF9046984603232BF02D
:102B80000402236122604FF00009009733460BAA2C
:102B90002146284600F0E6F9013040F08D804FF0E4
:102BA000FF300DB0BDE8F08F42464B4640464946E7
:102BB000FDF7C4FF10B18C4A8C4BDAE761684B1CFF
:102BC0004BF480620AA83ED1062363600023CDE95E
:102BD000020309AB009349EC108B0DF12303226033
:102BE000CDF804A061682846FFF7E8FE0AF0DF038D
:102BF000472B804609D1099BD81C02DB62689342AF
:102C000047DDAAF1020A5FFA8AFABAF1650F09995B
:102C100024D80139524604F150000991FFF72FFFE3
:102C20000A9A1318012A8146236102DC2268D1071F
:102C300001D5013323619DF82330002BA5D02D232E
:102C400084F84330A1E7BAF1670F00F07781BAF159
:102C5000470FBBD10029B9D10123B6E7BAF1660FFE
:102C600019D1002963680CDD216113B92268D207EC
:102C700002D501330B442361099BA3654FF0000982
:102C8000D9E713B92268D00701D50233F3E701234E
:102C9000F1E74FF0670ADDE90932934205DB22686C
:102CA0002361D107E8D50133E5E7002BD4BFC3F199
:102CB000020301231344DEE723685A0507D423697E
:102CC000424631462846B84701302BD167E7BAF172
:102CD000650F40F2DC8000220023D4E91201FDF7E9
:102CE000FBFE002833D00123414A31462846B8472D
:102CF00001303FF454AFDDE909239A4202DB236837
:102D0000D8070FD5DDE9042331462846B8470130FE
:102D10003FF445AF4FF0000804F11A090A9B013B4C
:102D2000434509DC23689B0700F10381E0680B9BA6
:102D30009842B8BF184634E701234A463146284630
:102D4000B84701303FF42BAF08F10108E6E7099BD3
:102D5000002B2BDC0123264A31462846B847013098
:102D60003FF41DAF099B23B90A9B13B92368D90708
:102D7000D8D5DDE9042331462846B84701303FF471
:102D80000EAF4FF0000904F11A0A099B5B424B4554
:102D900001DC0A9B94E70123524631462846B84796
:102DA00001303FF4FCAE09F10109EEE70A9AA36D88
:102DB0009A42A8BF1A46002A914607DD13463146BB
:102DC00042462846B84701303FF4E9AE04F11A0301
:102DD0004FF0000B29EAE979069315E0FFFFEF7F3A
:102DE000804A00087C4A0008884A0008844A000893
:102DF0008C4A00080123069A31462846B84701301C
:102E00003FF4CDAE0BF1010BD4F858A0AAEB0903A7
:102E10005B45EFDCDDE909239A42D04415DB2368EA
:102E2000DA0712D40A9B0999A3EB0A02A3EB010A61
:102E30009245A8BF9246BAF1000F0EDC4FF0000891
:102E40002AEAEA7A04F11A0919E0DDE90423314695
:102E50002846B8470130E5D1A1E6534642463146FF
:102E60002846B8470130E9D199E601234A46314660
:102E70002846B84701303FF492AE08F10108DDE979
:102E800009239B1AA3EB0A034345EEDC4AE70A9A9F
:102E9000012A01DCDB073AD50123424631462846A8
:102EA000B84701303FF47BAEDDE9042331462846C4
:102EB000B847013008F101083FF471AE0A9B0022C7
:102EC00003F1FF3AD4E912010023FDF705FEC8B96A
:102ED0005346424631462846B84701300ED15EE699
:102EE0000123524631462846B84701303FF457AED9
:102EF00008F101080A9B013B4345F1DC4B4604F114
:102F00005002DEE64FF0000804F11A0AF2E701234E
:102F1000DFE701234A4631462846B84701303FF4EF
:102F20003EAE08F10108E3680B9A9B1A4345F0DCBA
:102F3000FCE64FF0000804F11909F4E700293FF41A
:102F40008BAE0023CDE9020309AB009349EC108B53
:102F50002260CDF804A00DF123032846FFF72EFDD3
:102F6000804648E62DE9F04791461F468A680B697E
:102F7000DDF820809342B8BF1346C9F8003091F8BD
:102F8000432006460C4612B10133C9F800302368CD
:102F9000990642BFD9F800300233C9F800302568DD
:102FA00015F0060507D104F1190AE368D9F80020E5
:102FB0009B1AAB4228DC94F843302268003318BFD8
:102FC000012392062DD404F1430239463046C0470E
:102FD000013020D02368E568D9F8002003F006030B
:102FE000042B08BFAD1AA36822690CBF25EAE5755A
:102FF00000259342C4BF9B1AED184FF000091A3404
:103000004D451AD1002008E001235246394630468A
:10301000C047013003D14FF0FF30BDE8F0870135E4
:10302000C3E7E1185A1C302081F84300224494F889
:10303000451082F843100233C5E701232246394682
:103040003046C0470130E6D009F10109D8E7000059
:103050002DE9F04301F1430C0C46097E85B06E2941
:103060001746064698460C9A00F0B38022D863298A
:1030700036D00AD8002900F0B980582900F08380A2
:1030800004F1420584F8421032E0642901D0692934
:10309000F6D120681368050603F104012AD51B68E0
:1030A0001160002B03DA2D225B4284F843206F4825
:1030B0000A2239E0732900F09D8008D86F2920D0BA
:1030C0007029DDD1236843F02003236003E07529D4
:1030D00017D07829D4D1782384F84530644855E056
:1030E0001368191D1B68116004F1420584F8423011
:1030F00001238CE01B68116010F0400F18BF1BB259
:10310000CFE713682568181D1060280601D51B68D5
:1031100002E06806FBD51B8854486F2914BF0A22B9
:103120000822002184F843106568A560002DC0F2D4
:103130009580216821F004012160002B3DD1002DF4
:1031400040F08E806546082A0BD12368DB0708D53E
:10315000236962689A42DEBF302305F8013C05F11D
:10316000FF35ACEB05032361CDF800803B4603AA95
:1031700021463046FFF7F6FE01304DD14FF0FF30CB
:1031800005B0BDE8F083394884F84510136821681C
:103190001D1D1B6815600A060BD5CA0744BF41F008
:1031A000200121601BB9226822F020022260102237
:1031B000B7E74D0648BF9BB2EFE76546B3FBF2F1B8
:1031C00002FB1133C35C05F8013D0B460029F5D124
:1031D000B9E7136825686169181D106028061B6827
:1031E00001D5196002E06A06FBD51980002323612E
:1031F0006546B9E71368191D11601D6862680021F2
:103200002846FCF7F5FF08B1401B60606368236146
:10321000002384F84330A7E723692A46394630461D
:10322000C0470130AAD023689B0713D4E068039BF2
:103230009842B8BF1846A3E701234A4639463046AC
:10324000C04701309AD00135E368039A9B1AAB421C
:10325000F2DCEBE7002504F11909F5E7002BACD10E
:10326000037884F8423004F142056CE78E4A000886
:103270009F4A00080EB400B59CB01DAB02900690AA
:103280006FF00041094807910491094953F8042B54
:1032900005910068019302A901F05EFA029B0022E9
:1032A0001A701CB05DF804EB03B0704710000020EA
:1032B0000802FFFF2DE9F74F03690C69A34280461E
:1032C000C0F28280013C01F114074FEA840C00F146
:1032D000140657F8245056F8240006EB0C03013569
:1032E00007EB0C090193B0FBF5F595B34FF0000A1D
:1032F0003846B646D34650F8042B93B205FB03A3D9
:103300004FEA134A9BB2ABEB0303120CDEF800B09A
:1033100005FB02A213FA8BF34FEA124A1FFA82FB53
:10332000DEF80020CBEB124202EB23429BB243EAD1
:10333000024381454FEA224B4EF8043BDBD256F85C
:103340000C3033B9019B043B9E421A4630D3C8F877
:103350001040404601F02AF8002825DB01353046B0
:103360004FF0000C57F8042BD0F800E093B2ACEB10
:103370000303120C13FA8EF3C2EB1E4202EB23423C
:103380009BB243EA0243B9454FEA224C40F8043B62
:10339000E8D256F8242006EB84032AB9043B9E4267
:1033A0001A460BD3C8F81040284603B0BDE8F08F8A
:1033B0001268043B002ACAD1013CC5E71268043BED
:1033C000002AEFD1013CEAE70020EEE70000000010
:1033D0002DE9F04F57EC106B97B0456A0691044603
:1033E0000B921293DDF88080CDE900673DB9102083
:1033F00000F0B4FD6062C0E901550560C560636A14
:10340000196851B15A684A60012393408B60204685
:1034100000F0EBFD636A00221A603B1EBBBF23F085
:103420000043019300230122ACBFC8F80030C8F864
:103430000020AF4BDDF8048033EA080314D1129A60
:1034400042F20F731360009B23B9C8F313000028E6
:1034500000F04285219BDFF8ACB2002B00F04485E0
:103460000BF1030300F03EBDDDE9006700220023FD
:1034700030463946FDF730FB814668B1129A012388
:103480001360219B002B00F024859A4B219A03F1B5
:10349000FF3B136000F028BD14AA15A947EC106B80
:1034A000204600F0FAFFC8F30A550490002D7CD0A6
:1034B000C7F3130343F07F5BB2464BF4401BA5F206
:1034C000FF35CDF84C9000228B4B50465946FCF707
:1034D000E3FE81A3D3E90023FDF796F880A3D3E9A7
:1034E0000023FCF7DBFE064628460F46FDF722F8D0
:1034F0007DA3D3E90023FDF787F802460B4630464B
:103500003946FCF7CBFE06460F46FDF72DFB0022A1
:103510008246002330463946FDF7E8FA48B1504666
:10352000FDF708F832463B46FDF7D6FA08B90AF12E
:10353000FF3ABAF1160F59D8704901EBCA01DDE91B
:103540000023D1E90001FDF7EFFA002850D00AF17D
:10355000FF3A00230F93149B5D1BB5F1010849BF8F
:10356000C5F10103002305934FF0000858BF0593F0
:10357000BAF1000F3EDB0023D044CDF838A007930A
:10358000069B092B00F29080052BC4BF043B0693D9
:10359000069BA3F10203CCBF00250125032B00F2FB
:1035A0008F80DFE803F07D7F3171DDE914531D4426
:1035B00005F23240202813DDC0F14000009B08FADC
:1035C00000F805F2124023FA00F048EA0000FCF788
:1035D000A1FF01238246A1F1F87B013D139372E71D
:1035E000009BC0F1200003FA00F0F0E70123B1E7EF
:1035F0000F90B0E7059BA3EB0A030593CAF1000304
:10360000079300230E93BBE701230A930B9B002B28
:1036100059DD02939946666A00227260042202F123
:1036200014009842716853D9204600F0AAFC636ADE
:103630003060B9F10E0FD3F800B000F2E680002D33
:1036400000F0E3809DED007BBAF1000F8DED107B63
:1036500074DD2A4A0AF00F0302EBC30393ED007BEB
:103660004FEA2A16F0068DED087B65D5244BDDE97F
:103670001001D3E90823FDF7F1F8CDE9000106F0C8
:103680000F0603251E4F4CE001230A930B9B534466
:1036900003F1010902934B46012BB8BF0123BAE79E
:1036A0000023B2E70023F0E70125002306930A95E3
:1036B0004FF0FF3302939946002212230B92AAE7A0
:1036C00001230A93F4E70123029399461A46F5E78A
:1036D000013171605200A2E761436F63A787D23F57
:1036E000B3C8608B288AC63FFB799F501344D33FF1
:1036F0000000F07F8D4A00080000F83FE84A00080B
:10370000C04A0008B94A0008F10708D5DDE90801F8
:10371000D7E90023FCF778FFCDE9080101357610E1
:103720000837002EF0D1DDE90823DDE90001FDF7BF
:1037300095F8CDE900011AE00225A3E700F0A0808A
:10374000CAF100069F4BA04F06F00F0203EBC20325
:10375000D3E90023DDE91001FCF756FFCDE90001B4
:10376000361100230225002E7FD1002BE1D10F9BC3
:10377000002B00F08780DDE900670022934B304684
:103780003946FDF7B3F900287CD0B9F1000F79D0A4
:10379000029B002B35DD0AF1FF33089339460022E6
:1037A0008B4B3046FCF730FFCDE90001029F01351D
:1037B0002846FCF7BFFEDDE90023FCF725FF0022C9
:1037C000844BFCF76BFD0546A1F15076002F5DD1CF
:1037D0000022814BDDE90001FCF75EFD2A463346FD
:1037E000CDE90001FDF7A0F9002840F088822A46C3
:1037F00006F10043DDE90001FDF778F9002840F00B
:103800007C82DDE91023CDE90023159B002BC0F25B
:103810005081BAF10E0F00F34C816A4B03EBCA03DF
:1038200093ED007B0B9B002B8DED027B80F2D8800B
:10383000B9F1000F00F3D48040F05E820022664BA5
:1038400051EC170BFCF7E0FEDDE90023FDF762F910
:103850004F464E46002840F0348231230BF10105DB
:103860008BF800300AF1010A2FE2F20705D5D7E9FB
:103870000023FCF7C9FE013501237610083772E7F3
:10388000022574E7CDF820A04F4691E74D4B03EB9E
:10389000C70353E902010A9B002B47D002460B469F
:1038A00000204E49FCF7DAFF2A463346FCF7F4FCC9
:1038B000CDE90C015D46DDE90001FDF755F906464D
:1038C000FCF738FE02460B46DDE90001FCF7E4FC9C
:1038D000303605F8016BDDE90C23CDE90001FDF779
:1038E00005F9002863D1DDE9002300203749FCF702
:1038F000D3FCDDE90C23FDF7F9F8002840F0B78090
:10390000A5EB0B039F427FF77CAF0022304BDDE934
:103910000C01FCF779FE0022CDE90C012C4BDDE90E
:103920000001FCF771FECDE90001C4E72A463346E9
:10393000FCF76AFECDE90C010BEB07055E46DDE9FD
:103940000001FDF711F90746FCF7F4FD3037024698
:103950000B46DDE90001FCF79FFC06F8017BAE4257
:10396000CDE900014FF0000226D11C4BDDE90C012E
:10397000FCF794FC02460B46DDE90001FDF7D4F8A4
:10398000002874D1DDE90C2300201449FCF784FCE5
:1039900002460B46DDE90001FDF7A8F800283FF4D8
:1039A00030AF15F8013C302B05F1FF3202D0DDF8C5
:1039B00020A04AE01546F4E7054BFCF725FECDE9CB
:1039C0000001BCE7E84A0008C04A00080000F03FD8
:1039D0000000244000001C40000014400000E03FB4
:1039E000DDE900675D46DDE9022330463946FCF734
:1039F00035FFFDF7B9F88046FCF79CFDDDE90223B1
:103A0000FCF702FE02460B463046394608F1300606
:103A1000FCF742FC05F8016BA5EB0B06B14502462D
:103A20000B4639D1FCF73AFCDDE9022306460F4686
:103A3000FDF77AF8C8B9DDE9022330463946FDF7CB
:103A40004BF810B118F0010F0FD10499204600F087
:103A5000CCFA0023129A2B700AF101031360219B08
:103A6000002B00F041821D603EE2CDF820A015F849
:103A7000012C392A05F1FF3308D19B450AD1089B57
:103A80000133089330238BF800305B461A780132FB
:103A90001A708CE71D46EAE700229B4BFCF7B4FD49
:103AA0000022002306460F46FDF716F800289AD09C
:103AB000CBE70A9A002A00F08B80069A012A6EDC76
:103AC000139A002A67D003F23343079F059D059A96
:103AD00001211A4420460592984400F026FB064630
:103AE000002D0CDDB8F1000F09DD4545059A2B4688
:103AF000A8BF4346D21A0592ED1AA8EB0308079B0C
:103B0000EBB10A9B002B67D08FB131463A46204675
:103B100000F0AAFB049A01460646204600F00EFB80
:103B200004990890204600F060FA089B0493079BD4
:103B3000DA1B04D00499204600F096FB0490012182
:103B4000204600F0F2FA0E9B0746002B00F0D081D1
:103B50001A460146204600F087FB069B012B0746CC
:103B600040DC009B002B39D1019BC3F31303002BD6
:103B700036D1019B23F000431B0D1B052BB1059B88
:103B80000133059308F10108012307930E9B002BD5
:103B90002AD1012030E0149BC3F1360395E7079B3F
:103BA00009F1FF37BB42BFBF079B0797FA1A0E9B6D
:103BB000BBBF9B180E93DF1B0027B9F1000FB5BFE9
:103BC000059B059DA3EB09054B46B8BF00237EE787
:103BD000079F059D0A9E83E7079AABE70023D4E77A
:103BE000009BD2E7002307933B6907EB8303186927
:103BF00000F04DFAC0F12000404410F01F0047D003
:103C0000C0F12003042B3BDD059BC0F11C000344E5
:103C1000059305448044059B002B05DD1A46049955
:103C2000204600F06FFB0490B8F1000F05DD394627
:103C30004246204600F066FB07460F9B53B33946C9
:103C4000049800F0B3FB002824DA00230A22049928
:103C5000204600F0E1F90A9B04900AF1FF3A002B9C
:103C600000F04D81002331460A22204600F0D4F9AD
:103C7000029B002B06464FDC069B022B4CDD11E01D
:103C8000C9D0059A1C331A4405921D449844C2E7D2
:103C90000346F6E7B9F1000F38DC069B022B35DD51
:103CA000CDF80890029B63B939460522204600F002
:103CB000B3F901460746049800F078FB00283FF767
:103CC000CCAD0B9B5D466FEA030A4FF00009394605
:103CD000204600F08AF9002E3FF4B7AEB9F1000F8C
:103CE00005D0B14503D04946204600F07EF9314663
:103CF000204600F07AF9A8E600273E46E1E7DDF825
:103D000020A03E46A9E500BF000024400A9BCDF854
:103D10000890002B00F0FA80002D05DD31462A4680
:103D2000204600F0EFFA0646079B002B4CD0716846
:103D3000204600F026F9326902320546920006F16B
:103D40000C010C3000F012F901222946204600F047
:103D5000D9FA009BCDF814B003F00103B1460793E4
:103D6000064639460498FFF7A5FA4946054600F18C
:103D70003008049800F01AFB32460090394620467D
:103D800000F02EFBC368024603BB0146089004986E
:103D900000F00CFB089A034611462046089300F0F9
:103DA00024F9089BA3B9069A92B9079A82B9B8F187
:103DB000390F29D0009B002B01DD05F13108059B4F
:103DC0005D1C83F8008082E73046C2E70123E3E709
:103DD000009A002A04DB25D1069A1ABB079A0ABB6F
:103DE000002BECDD01220499204600F08BFA3946C5
:103DF000049000F0DBFA002803DCE0D118F0010F9A
:103E0000DDD0B8F1390FD8D1059B059A5D1C392357
:103E1000137015F8013C392B05F1FF324FD00133F7
:103E2000137054E7059A002B02F1010506DDB8F185
:103E3000390FE9D008F10108059BC2E7029A05F89D
:103E4000018CA5EB0B03934221D000230A22049995
:103E5000204600F0E1F8B14504904FF000034FF028
:103E60000A024946204605D100F0D6F881460646AA
:103E7000059576E700F0D0F83146814600230A2206
:103E8000204600F0C9F80646F2E74FF0000901228B
:103E90000499204600F036FA3946049000F086FA7C
:103EA0000028B6DC02D118F0010FB2D115F8013CA0
:103EB000302B05F1FF327FF40AAF1546F6E7934544
:103EC00005D131230AF1010A8BF80030FFE61546CF
:103ED0009FE7DFF864B007E0219BDFF860B01BB11B
:103EE0000BF10803219A1360584617B0BDE8F08F14
:103EF000069B012B7FF735AE0E9B079349E6029B8D
:103F0000002B03DC069B022B3FF7CCAE5D46394607
:103F10000498FFF7CFF900F1300805F8018B029AF9
:103F2000A5EB0B039A42B0DD00230A220499204638
:103F300000F072F80490EAE78C4A0008B04A0008E2
:103F4000044B1B68186A044B002808BF1846F03061
:103F5000704700BF1000002074000020024B014693
:103F6000186800F045BB00BF1000002010B5431ECC
:103F70000A44914200D110BD11F8014B03F8014FE2
:103F8000F7E770B5456A04460E463DB91020FFF7C5
:103F9000E5FF6062C0E901550560C560656AEB68D0
:103FA00083B1636ADB6853F82600B8B9012101FACE
:103FB00006F56A1D9200204600F0BEFA60B1C0E925
:103FC00001650EE021220421204600F0B5FA636A63
:103FD000E860DB68002BE4D1002070BD026843F884
:103FE00026200023C0E90333F7E770B5446A06468C
:103FF0000D463CB91020FFF7B1FF7062C0E90144E3
:104000000460C4603DB1736A6A68DB6853F82210CB
:10401000296043F8225070BD2DE9F0410D691F461B
:1040200006460C4601F1140C0023DCF8000081B2B6
:1040300002FB01710F0C000C02FB007089B201330E
:1040400001EB00419D424FEA10474CF8041BECDCA9
:10405000D7B1A368AB4212DC616830460131FFF78B
:1040600090FF2269023204F10C01804692000C306C
:10407000FFF77CFF21463046FFF7B7FF444604EBCD
:10408000850301355F6125612046BDE8F081020CA2
:1040900012040346B2B90304102013F07F4F04BF8B
:1040A0001B02083013F0704F04BF1B01043013F0E3
:1040B000404F04BF9B000230002B06DB5B0003D5A2
:1040C000013070470020E8E720207047036813F0B4
:1040D000070201460BD0DA0723D4980749BF5B08D3
:1040E0009B0801200B605CBF0B600220704798B2F8
:1040F000A8B91B0C102013F0FF0F04BF1B0A0830D7
:104100001A0704BF1B0904309A0704BF9B0802303A
:10411000DA0702D45B0806D001300B607047104606
:10412000E9E7002070472020704710B50C460121B8
:10413000FFF727FF01224461026110BD2DE9F74F0F
:1041400014460A6923699A42B8BF0B468846BCBF29
:10415000A0461C46D8F81070D4F81090D8F8083053
:10416000D8F8041007EB0906B342B8BF0131FFF7D6
:1041700008FF00F1140505EB860E2B46002273455F
:1041800016D304F1140208F1140102EB890301EBC8
:1041900087070093009B019293420CD8002E03DD09
:1041A0005EF8043D002B5DD0066103B0BDE8F08FE2
:1041B00043F8042BE3E7B2F800B0BBF1000F23D0C3
:1041C0008946AC464FF0000859F8044BDCF800A0D3
:1041D000A3B21FFA8AFA0BFB03A34FEA144ADCF8D6
:1041E000004043444FEA14480BFB0A8404EB134499
:1041F000E2469BB243EA04434F454FEA14484AF86B
:10420000043B2BD8CCF80480019BB3F802A0043205
:10421000BAF1000F20D02B688946A8464FF0000B5A
:10422000B9F800C0B8F802400AFB0C445C44C4462C
:104230009BB243EA04434CF8043B59F8043BB8F8FA
:1042400004B01B0C0AFB03B303EB14434F454FEAC6
:10425000134B05D8C8F8043004359BE7D446B3E7C0
:10426000E046DDE7013E99E72DE9F843154612F0F7
:10427000030206460F4607D0013A214C002354F8AA
:104280002220FFF7C9FE0746AD1035D0746A3CB94D
:104290001020FFF763FE7062C0E901440460C4604F
:1042A000D6F82480D8F808404CB940F27121304645
:1042B000FFF73BFF0023C8F80800044603604FF0F7
:1042C0000008EB070AD5394622463046FFF736FF8D
:1042D000394681463046FFF788FE4F466D100BD0B9
:1042E000206838B9224621463046FFF727FF206074
:1042F000C0F800800446E4E73846BDE8F88300BF14
:10430000B04B00082DE9F0470C464FEA621A2369CA
:1043100049680AEB0309A3680746164609F1010537
:10432000AB4232DB3846FFF72CFE0023804600F11B
:1043300014011A4653452BDB20692AEAEA7A04F174
:10434000140316F01F0201EB8A0103EB800C25D049
:10435000C2F1200E00201E688A46964030434AF87B
:10436000040B53F8040B9C4520FA0EF014D8486057
:1043700008B109F10205013D3846C8F81050214640
:10438000FFF733FE4046BDE8F08701315B00C7E729
:1043900041F823200133CDE75146DCE7043953F8D7
:1043A000042B41F8042F9C45F9D8E4E703690A6916
:1043B0009B1A30B50CD1920014301431841811447A
:1043C00054F8045D51F8042D954203D005D3012320
:1043D000184630BDA042F3D3FAE74FF0FF33F7E7BA
:1043E0002DE9F0470D460746114628461446FFF7CB
:1043F000DDFF061E08D131463846FFF7C2FD012316
:10440000C0E90436BDE8F087A4BF23462C463846F1
:104410006168A6BF1D4600260126FFF7B2FD2B6985
:10442000C660266905F1140904F1140202EB86073F
:1044300009EB830800F114054FF0000E52F804ABAD
:1044400059F8044B1EFA8AF1A3B2C91A230CC3EB24
:104450001A4303EB214389B24FEA234EC84541EA90
:104460000343944645F8043BE8D8BC4504D355F8CB
:10447000043D83B10661C5E75CF8041B1EFA81F3B5
:104480001A1402EB11429BB243EA02434FEA224E56
:1044900045F8043BE9E7013EE9E72DE9F7430E461D
:1044A000012159EC108B1546FFF76BFDC9F30A5437
:1044B0000746C9F3130334BB0193B8F1000327D0B7
:1044C00002A840F8083DFFF701FE0099F0B1019AFB
:1044D000C0F1200302FA03F30B43C2407B61019257
:1044E000019BBB61002B14BF022101213961C4B1C2
:1044F000A4F2334404443460C0F1350028603846E7
:1045000003B0BDE8F08343F48013D5E77961E7E7B2
:1045100001A8FFF7DBFD019B7B61012139612030A0
:10452000E5E707EB8103A0F2324030601869FFF73E
:10453000AEFDC0EB4110E1E738B502FB01F42146C6
:1045400000F056F8054618B122460021FEF72EFA73
:10455000284638BD38B50546002945D051F8043CF9
:104560000C1F002BB8BFE41800F029FA1F4A13688B
:10457000104633B9636014602846BDE8384000F047
:104580001FBAA3420CD921686218934204BF1A686B
:104590005B68636004BF521822600460ECE7134656
:1045A0005A680AB1A242FAD919685818A0420BD128
:1045B00020680144581882421960DDD110685268A1
:1045C0005A6001441960D7E702D90C232B60D3E766
:1045D000206821188A4204BF11685268626004BFD3
:1045E000091821605C60C7E738BD00BF24020020C5
:1045F00070B5CD1C25F0030508350C2D38BF0C25F2
:10460000002D064601DBA94203D90C2333600020AC
:1046100070BD00F0D4F9214A1468214691B9204CAC
:1046200023681BB9304600F08FF9206029463046D8
:1046300000F08AF9431C24D10C233360304600F08B
:10464000BFF9E4E70B685B1B18D40B2B0FD90B6089
:10465000CD50CC18304600F0B3F904F10B00231D07
:1046600020F00700C31AD3D05A42E250D0E78C4260
:104670004B6816BF636013600C46EBE70C46496855
:10468000CCE7C41C24F00304A04205D0211A304614
:1046900000F05AF90130CFD02560DBE7240200207A
:1046A000280200202DE9F0478E689E4282460C4683
:1046B0009046994637D88A8912F4906F31D0256890
:1046C00009696F1A6569022305EB450595FBF3F54A
:1046D00009F101033B449D4238BF1D46530530D5C7
:1046E0002946FFF785FF064650B90C23CAF800306B
:1046F000A38943F04003A3814FF0FF30BDE8F0876A
:104700003A462169FFF732FCA38923F4906343F012
:104710008003A381266165613E44ED1B2660A56090
:104720004E464E4500D94E4632464146206800F07E
:104730002DF9A3689B1BA36023681E4426600020FC
:10474000DCE72A4600F03DF906460028E2D121695F
:104750005046FFF7FFFEC8E72DE9F04F1D468B8955
:104760001F069DB080460C4616460FD50B696BB9E7
:104770004021FFF73DFF2060206128B90C23C8F8D5
:1047800000304FF0FF30C8E04023636100230993FD
:1047900020238DF8293030238DF82A3003954FF0EF
:1047A000010B37463D4615F8013B0BB1252B3ED199
:1047B000B7EB060A0BD05346324621464046FFF778
:1047C00071FF013000F0A480099B534409933B78AA
:1047D000002B00F09D8000234FF0FF32CDE9052330
:1047E000049307938DF853301A932F46052217F838
:1047F000011B5048FBF7FCFC049BD0B9D90644BF11
:1048000020228DF853201A0744BF2B228DF8532005
:104810002A782A2A15D0079A2F4600200A253946D9
:1048200011F8013B303B092B4DD9B8B10FE02F46B1
:10483000B8E7404A801A0BFA00F0184304903D464E
:10484000D3E7039A111D12680391002A01DB079236
:1048500004E0524243F00203079204933B782E2B6C
:104860000CD17B782A2B33D1039B1A1D1B68039232
:10487000002BB8BF4FF0FF33023705932E4D397828
:1048800003222846FBF7B4FC38B14023401B03FA4F
:1048900000F0049B034301370493397827488DF8CF
:1048A000281006227E1CFBF7A3FC002838D0244BDE
:1048B00013BB039B073323F0070308330393099BC0
:1048C0004B4409936DE705FB023201200F46A6E732
:1048D00000230137059319460A25384610F8012BA5
:1048E000303A092A03D9002BC8D00591C6E705FB49
:1048F000012101230746F0E703AB00932246114B49
:1049000004A94046FEF7EEF8B0F1FF3F8146D6D14C
:10491000A3895B063FF535AF09981DB0BDE8F08F60
:1049200003AB00932246074B04A94046FEF790FBD9
:10493000EAE700BFBC4B0008C24B0008C64B0008AA
:10494000E52A0008A546000838B5064C00230546B0
:1049500008462360FCF7C8FF431C02D1236803B15B
:104960002B6038BD3402002082B001B901A942B1E8
:104970004BB113780B601278101C18BF012002B0E5
:1049800070471046FBE76FF00100F8E7884210B56A
:1049900001EB020307D8421E99420AD011F8014BDD
:1049A00002F8014FF8E78342F5D98118D21AD342B1
:1049B00000D110BD13F8014D01F8014DF7E7704724
:1049C0007047F8B5074614460E4621B91146BDE8B2
:1049D000F840FFF70DBE22B9FFF7BCFD254628467B
:1049E000F8BD00F021F8A0420FD221463846FFF76B
:1049F000FFFD05460028F2D031462246FFF7B6FA01
:104A000031463846FFF7A6FDE9E73546E7E749B105
:104A1000FF2A85BF8A2303600A704FF0FF3098BFDA
:104A2000012070470846704751F8043C181F002BBE
:104A3000BCBF0B58C0187047F8B500BFF8BC08BC25
:104A40009E467047F8B500BFF8BC08BC9E4670474C
:104A500025640000252E2A6600000000506F733A7E
:104A6000200000000000000000000000010203041C
:104A7000060708090000000001020304494E460031
:104A8000696E66004E414E006E616E00300030313E
:104A900032333435363738394142434445460030A5
:104AA00031323334353637383961626364656600D4
:104AB000496E66696E697479004E614E00000000AF
:104AC0000080E03779C34143176E05B5B5B893460A
:104AD000F5F93FE9034F384D321D30F94877825AD6
:104AE0003CBF737FDD4F1575000000000000F03FF4
:104AF00000000000000024400000000000005940B9
:104B00000000000000408F40000000000088C3400B
:104B100000000000006AF8400000000080842E4180
:104B200000000000D01263410000000084D79741CC
:104B30000000000065CDCD41000000205FA00242D2
:104B4000000000E876483742000000A2941A6D4247
:104B5000000040E59C30A2420000901EC4BCD6423A
:104B600000003426F56B0C430080E03779C34143E5
:104B700000A0D8855734764300C84E676DC1AB435B
:104B8000003D9160E458E143408CB5781DAF154479
:104B900050EFE2D6E41A4B4492D54D06CFF0804454
:104BA000F64AE1C7022DB544B49DD9794378EA4469
:104BB00005000000190000007D000000232D302BAF
:104BC0002000686C4C00656667454647004300500E
:104BD0004F534958002E0000202020202020202064
:104BE000202828282828202020202020202020209D
:104BF00020202020202020208810101010101010BD
:104C00001010101010101010040404040404040404
:104C10000404101010101010104141414141410195
:104C20000101010101010101010101010101010174
:104C30000101011010101010104242424242420283
:104C40000202020202020202020202020202020244
:104C500002020210101010200000000000000000EE
:104C60000000000000000000000000000000000044
:104C70000000000000000000000000000000000034
:104C80000000000000000000000000000000000024
:104C90000000000000000000000000000000000014
:104CA0000000000000000000000000000000000004
:104CB00000000000000000000000000000000000F4
:104CC00000000000000000000000000000000000E4
:084CD0000000000000000000DC
:084CD800F0BFFF7F01000000A6
:044CE000C501000802
:044CE400A101000822
:104CE800013800000024F40010000000010000005A
:104CF8001400002000000000000000000000000078
:104D0800000000000000000000000000000000009B
:104D1800000000000000000000000000000000008B
:104D2800000000000000000000000000000000007B
:104D3800000000000000000000000000000000006B
:104D4800000000000000000000000000000000005B
:104D58000000000043000000000000000000000008
:104D6800000000000000000000000000000000003B
:104D780000000000430000000000000000000000E8
:104D8800000000000000000000000000000000001B
:104D980000000000430000000000000000000000C8
:104DA80000000000000000000000000000000000FB
:104DB80000000000430000000000000000000000A8
:104DC80000000000000000000000000000000000DB
:104DD8000000000043000000000000000000000088
:104DE80000000000000000000000000000000000BB
:104DF8000000000043000000000000000000000068
:104E0800000000000000000000000000000000009A
:104E18000000000043000000000000000000000047
:104E2800000000000000000000000000000000007A
:104E3800000000000F4A000869490008000000004F
:104E4800D74B0008D54B0008C14B0008C14B0008E0
:104E5800C14B0008C14B0008C14B0008C14B0008FA
:104E6800C14B0008C14B0008C14B0008FFFFFFFF02
:104E7800FFFFFFFFFFFFFFFFFFFF0000010041539F
:104E88004349490000000000000000000000000045
:104E98000000000000000000000000000000415376
:104EA8004349490000000000000000000000000025
:104EB80000000000000000000000000000000000EA
:040000050800196D69
:00000001FF
