:020000040800F2
:100000000080012029150008A1140008AF14000881
:10001000B5140008BB140008C1140008000000005B
:10002000000000000000000000000000C7140008ED
:10003000D514000800000000E3140008F1140008C3
:100040007915000879150008791500087915000858
:100050007915000879150008791500087915000848
:100060007915000879150008791500087915000838
:100070007915000879150008791500087915000828
:1000800079150008791500087915000800000000AE
:1000900000000000000000000000000079150008CA
:1000A00079150008791500087915000879150008F8
:1000B00079150008791500087915000879150008E8
:1000C00079150008791500087915000879150008D8
:1000D000791500087915000879150008000000005E
:1000E000791500087915000879150008000000004E
:1000F000000000000000000000000000791500086A
:10010000000000007915000879150008791500082D
:1001100000000000000000000000000000000000DF
:100120007915000879150008791500087915000877
:100130007915000800000000000000000000000029
:100140000000000000000000000000007915000819
:100150007915000879150008791500087915000847
:100160007915000879150008000000000000000063
:10017000000000000000000000000000000000007F
:1001800000000000791500080000000000000000D9
:0401900079150008D5
:1001980010B5054C237833B9044B13B10448AFF3B9
:1001A80000800123237010BD100000200000000013
:1001B800B424000808B5034B1BB103490348AFF347
:1001C800008008BD0000000014000020B4240008CE
:1001D80081F0004102E000BF83F0004330B54FEAF0
:1001E80041044FEA430594EA050F08BF90EA020F5D
:1001F8001FBF54EA000C55EA020C7FEA645C7FEAF0
:10020800655C00F0E2804FEA5454D4EB5555B8BF12
:100218006D420CDD2C4480EA020281EA030382EA83
:10022800000083EA010180EA020281EA0303362D15
:1002380088BF30BD11F0004F4FEA01314FF4801CE8
:100248004CEA113102D0404261EB410113F0004FFA
:100258004FEA03334CEA133302D0524263EB4303B1
:1002680094EA050F00F0A780A4F10104D5F1200E4F
:100278000DDB02FA0EFC22FA05F2801841F10001AA
:1002880003FA0EF2801843FA05F359410EE0A5F17E
:1002980020050EF1200E012A03FA0EFC28BF4CF0AF
:1002A800020C43FA05F3C01851EBE37101F0004565
:1002B80007D54FF0000EDCF1000C7EEB00006EEB72
:1002C8000101B1F5801F1BD3B1F5001F0CD34908FC
:1002D8005FEA30004FEA3C0C04F101044FEA445253
:1002E80012F5800F80F09A80BCF1004F08BF5FEADA
:1002F800500C50F1000041EB045141EA050130BDBA
:100308005FEA4C0C404141EB010111F4801FA4F15C
:100318000104E9D191F0000F04BF01460020B1FAB1
:1003280081F308BF2033A3F10B03B3F120020CDAE9
:100338000C3208DD02F1140CC2F10C0201FA0CF0C7
:1003480021FA02F10CE002F11402D8BFC2F1200C2C
:1003580001FA02F120FA0CFCDCBF41EA0C019040E2
:10036800E41AA2BF01EB0451294330BD6FEA04042B
:100378001F3C1CDA0C340EDC04F11404C4F1200216
:1003880020FA04F001FA02F340EA030021FA04F328
:1003980045EA030130BDC4F10C04C4F1200220FA7F
:1003A80002F001FA04F340EA0300294630BD21FABD
:1003B80004F0294630BD94F0000F83F4801306BF83
:1003C80081F480110134013D4EE77FEA645C18BF77
:1003D8007FEA655C29D094EA050F08BF90EA020F0E
:1003E80005D054EA000C04BF1946104630BD91EA06
:1003F800030F1EBF0021002030BD5FEA545C05D109
:100408004000494128BF41F0004130BD14F5800447
:100418003CBF01F5801130BD01F0004545F0FE41BB
:1004280041F470014FF0000030BD7FEA645C1ABFF0
:10043800194610467FEA655C1CBF0B46024650EA27
:10044800013406BF52EA033591EA030F41F4002153
:1004580030BD00BF90F0000F04BF0021704730B5D9
:100468004FF4806404F132044FF000054FF00001AE
:1004780050E700BF90F0000F04BF0021704730B56F
:100488004FF4806404F1320410F0004548BF404244
:100498004FF000013EE700BF42004FEAE2014FEA99
:1004A80031014FEA02701FBF12F07F4393F07F4F74
:1004B80081F06051704732F07F4208BF704793F077
:1004C8007F4F04BF41F40021704730B54FF460748A
:1004D80001F0004521F000411CE700BF50EA01028D
:1004E80008BF704730B54FF000050AE050EA010236
:1004F80008BF704730B511F0004502D5404261EBA6
:1005080041014FF4806404F132045FEA915C3FF4E6
:10051800D8AE4FF003025FEADC0C18BF03325FEA83
:10052800DC0C18BF033202EBDC02C2F1200300FA34
:1005380003FC20FA02F001FA03FE40EA0E0021FA59
:1005480002F11444BDE600BF70B54FF0FF0C4CF447
:10055800E06C1CEA11541DBF1CEA135594EA0C0FF9
:1005680095EA0C0F00F0DEF82C4481EA030621EA34
:100578004C5123EA4C5350EA013518BF52EA03356F
:1005880041F4801143F4801338D0A0FB02CE4FF021
:100598000005E1FB02E506F00042E0FB03E54FF051
:1005A8000006E1FB03569CF0000F18BF4EF0010E49
:1005B800A4F1FF04B6F5007F64F5407404D25FEA45
:1005C8004E0E6D4146EB060642EAC62141EA5551F8
:1005D8004FEAC52040EA5E504FEACE2EB4F1FD0C3A
:1005E80088BFBCF5E06F1ED8BEF1004F08BF5FEAB8
:1005F800500E50F1000041EB045170BD06F000466A
:1006080046EA010140EA020081EA0301B4EB5C0416
:10061800C2BFD4EB0C0541EA045170BD41F480110E
:100628004FF0000E013C00F3AB8014F1360FDEBF33
:10063800002001F0004170BDC4F10004203C35DA0F
:100648000C341BDC04F11404C4F1200500FA05F392
:1006580020FA04F001FA05F240EA020001F0004233
:1006680021F0004110EBD37021FA04F642EB0601A9
:100678005EEA430E08BF20EAD37070BDC4F10C04D3
:10068800C4F1200500FA04F320FA05F001FA04F297
:1006980040EA020001F0004110EBD37041F1000183
:1006A8005EEA430E08BF20EAD37070BDC4F120058E
:1006B80000FA05F24EEA020E20FA04F301FA05F2F6
:1006C80043EA020321FA04F001F0004121FA04F29E
:1006D80020EA020000EBD3705EEA430E08BF20EA6E
:1006E800D37070BD94F0000F0FD101F000464000A8
:1006F80041EB010111F4801F08BF013CF7D041EA2A
:10070800060195F0000F18BF704703F0004652002D
:1007180043EB030313F4801F08BF013DF7D043EAFE
:100728000603704794EA0C0F0CEA135518BF95EAB4
:100738000C0F0CD050EA410618BF52EA4306D1D13B
:1007480081EA030101F000414FF0000070BD50EA5A
:10075800410606BF1046194652EA430619D094EAE4
:100768000C0F02D150EA013613D195EA0C0F05D1CE
:1007780052EA03361CBF104619460AD181EA030122
:1007880001F0004141F0FE4141F470014FF00000DA
:1007980070BD41F0FE4141F4780170BD70B54FF075
:1007A800FF0C4CF4E06C1CEA11541DBF1CEA1355F5
:1007B80094EA0C0F95EA0C0F00F0A7F8A4EB0504D7
:1007C80081EA030E52EA03354FEA013100F08880CE
:1007D8004FEA03334FF0805545EA131343EA126397
:1007E8004FEA022245EA111545EA10654FEA00264C
:1007F8000EF000419D4208BF964244F1FD0404F505
:10080800407402D25B084FEA3202B61A65EB030560
:100818005B084FEA32024FF480104FF4002CB6EB1D
:10082800020E75EB030E22BFB61A754640EA0C009D
:100838005B084FEA3202B6EB020E75EB030E22BFDD
:10084800B61A754640EA5C005B084FEA3202B6EB1E
:10085800020E75EB030E22BFB61A754640EA9C00DD
:100868005B084FEA3202B6EB020E75EB030E22BFAD
:10087800B61A754640EADC0055EA060E18D04FEA6B
:10088800051545EA16754FEA06164FEAC30343EA0B
:1008980052734FEAC2025FEA1C1CC0D111F4801FD8
:1008A8000BD141EA00014FF000004FF0004CB6E7D1
:1008B80011F4801F04BF01430020B4F1FD0C88BF70
:1008C800BCF5E06F3FF6AFAEB5EB030C04BFB6EB7B
:1008D800020C5FEA500C50F1000041EB045170BD6E
:1008E8000EF0004E4EEA113114EB5C04C2BFD4EB9B
:1008F8000C0541EA045170BD41F480114FF0000E1F
:10090800013C90E645EA060E8DE60CEA135594EA9A
:100918000C0F08BF95EA0C0F3FF43BAF94EA0C0F9D
:100928000AD150EA01347FF434AF95EA0C0F7FF412
:1009380025AF104619462CE795EA0C0F06D152EA66
:1009480003353FF4FDAE1046194622E750EA41064A
:1009580018BF52EA43067FF4C5AE50EA41047FF45B
:100968000DAF52EA43057FF4EBAE12E74A0011D20D
:1009780012F5001211D20DD56FF47873B3EB6252F1
:100988000ED44FEAC12343F0004343EA505323FAFD
:1009980002F070474FF00000704750EA013002D172
:1009A8004FF0FF3070474FF00000704753B94AB915
:1009B800002908BF00281CBF4FF0FF314FF0FF305F
:1009C80000F072B9ADF1080C6DE904CE00F006F83C
:1009D800DDF804E0DDE9022304B070472DE9F047B3
:1009E800089E04468846002B4BD18A42154667D993
:1009F800B2FA82F24AB1C2F1200701FA02F320FAF0
:100A080007F7954047EA030894404FEA154E230C30
:100A1800B8FBFEF71FFA85FC0EFB178843EA08436C
:100A280007FB0CF1994209D9EB1807F1FF3080F068
:100A38001B81994240F21881023F2B445B1AA4B2F1
:100A4800B3FBFEF00EFB103344EA034400FB0CFC3E
:100A5800A44509D92C1900F1FF3380F00781A4457A
:100A680040F2048102382C4440EA0740A4EB0C040D
:100A780000271EB1D4400023C6E900433946BDE82B
:100A8800F0878B4209D9002E00F0EB800027C6E9D9
:100A9800000138463946BDE8F087B3FA83F7002FDE
:100AA80047D18B4202D3824200F2FA80841A61EB6A
:100AB800030301209846002EE0D0C6E90048DDE790
:100AC80002B9FFDEB2FA82F2002A40F08F80491B99
:100AD8004FEA154E1FFA85F80127B1FBFEFC230CDF
:100AE8000EFB1C1143EA014308FB0CF1994207D99C
:100AF800EB180CF1FF3002D2994200F2CD80844607
:100B0800591AA3B2B1FBFEF00EFB101443EA0444D9
:100B180008FB00F8A04507D92C1900F1FF3302D2D1
:100B2800A04500F2B6801846A4EB080440EA0C4041
:100B38009FE7C7F1200CBB4022FA0CFE4EEA030ED9
:100B480001FA07F420FA0CF521FA0CF34FEA1E48D3
:100B58002543B3FBF8F92C0C08FB19331FFA8EFA5E
:100B680044EA034309FB0AF49C4202FA07F200FA3A
:100B780007F10BD91EEB030309F1FF3080F08780E2
:100B88009C4240F28480A9F1020973441B1BADB258
:100B9800B3FBF8F008FB103345EA034400FB0AFAFC
:100BA800A24508D91EEB040400F1FF336BD2A2451D
:100BB80069D90238744440EA0940A0FB0289A4EBD1
:100BC8000A044C45C2464B4654D351D0002E69D036
:100BD800B1EB0A0564EB030404FA0CFCFD40FC408D
:100BE8004CEA0505C6E90054002747E7C2F120038F
:100BF80020FA03F7954001FA02F021FA03F34FEACD
:100C0800154E3843010CB3FBFEF71FFA85F80EFBAF
:100C1800173341EA034107FB08F38B4204FA02F455
:100C280007D9691807F1FF3C2FD28B422DD9023F13
:100C38002944CB1A81B2B3FBFEF00EFB103341EA14
:100C4800034100FB08F38B4207D9691800F1FF3C08
:100C580017D28B4215D902382944C91A40EA0747E6
:100C68003BE73746304609E70746E7E61846FBE61E
:100C78004145ABD2B8EB020A69EB0E0201381346C4
:100C8800A4E76046E9E7184695E76746D1E7814655
:100C98007CE702382C4447E7ACF1020C2B442FE7E1
:100CA800384608E73746E9E6704700BF80B500AF29
:100CB8000C4B18680C4B1B880122194600F056FF94
:100CC8000A23184600F07CF9064B1868064B1B8867
:100CD8000022194600F04AFF3C2000F071F900BFDD
:100CE80080BD00BF2C0000203200002080B582B0FB
:100CF80000AF0346FB71FB79002B08D00A4B18683C
:100D08000A4B1B880122194600F030FF07E0064B0A
:100D18001868064B1B880022194600F027FF00BF01
:100D28000837BD4680BD00BF2C00002030000020E1
:100D380080B584B000AF0346FB71FB7903F00F0365
:100D4800FB73FB791B09BB73614B1B78012B5AD1D1
:100D5800604B1868604B1988FB7B03F00103DBB21A
:100D68001A4600F003FF5B4B18685C4B1988FB7B45
:100D780003F00203DBB21A4600F0F8FE554B186880
:100D8800574B1988FB7B03F00403DBB21A4600F0CB
:100D9800EDFE504B1868534B1988FB7B03F0080392
:100DA800DBB21A4600F0E2FE4F4B18684F4B198829
:100DB800BB7B03F00103DBB21A4600F0D7FE4A4BB7
:100DC80018684B4B1988BB7B03F00203DBB21A4649
:100DD80000F0CCFE444B1868464B1988BB7B03F0E7
:100DE8000403DBB21A4600F0C1FE3F4B1868424BC1
:100DF8001988BB7B03F00803DBB21A4600F0B6FE85
:100E0800FFF754FF5FE0324B1B78022B5BD1364B68
:100E18001868364B1988BB7B03F00103DBB21A460E
:100E280000F0A4FE304B1868314B1988BB7B03F0E7
:100E38000203DBB21A4600F099FE2B4B18682D4BC3
:100E48001988BB7B03F00403DBB21A4600F08EFE60
:100E5800254B1868284B1988BB7B03F00803DBB2C5
:100E68001A4600F083FEFFF721FF1F4B18681F4B3F
:100E78001988FB7B03F00103DBB21A4600F076FE0B
:100E8800194B18681A4B1988FB7B03F00203DBB275
:100E98001A4600F06BFE144B1868164B1988FB7B3A
:100EA80003F00403DBB21A4600F060FE0E4B18682C
:100EB800114B1988FB7B03F00803DBB21A4600F0DC
:100EC80055FEFFF7F3FE00BF1037BD4680BD00BFDB
:100ED8000000002034000020380000203A000020E4
:100EE8003C0000203E00002040000020440000207C
:100EF80046000020480000204A00002000000000B2
:100F080090B589B000AF3A1D07F10803114618469D
:100F180001F06EFA7B69002B03D101F055FAF861F4
:100F280004E001F051FA03465B00FB61F869FFF742
:100F380091FA21A3D3E90023FFF706FB03460C46E9
:100F480018462146FFF712FD0346FB61184B1B6C40
:100F5800174A43F002031364164B1B68154A23F023
:100F680010031360134B1B68124A23F0010313602C
:100F7800104B1B680F4A23F0040313600D4B1B68CA
:100F88000C4A43F0080313600A4AFB69013B936269
:100F9800084B0922DA62074B01225A61054B1B698B
:100FA800044A23F00103136100BF2437BD4690BDF6
:100FB80000380240000400408DEDB5A0F7C6B03EF1
:100FC80080B483B000AF78600E4A7B68013BD3627F
:100FD8000C4B1B690B4A23F001031361094B1B6877
:100FE800084A43F00103136000BF064B1B6903F076
:100FF8000103012BF9D100BF0C37BD465DF8047B16
:10100800704700BF0004004080B582B000AF0346BF
:10101800FB710020FFF76AFEFB791846FFF788FE90
:1010280000BF0837BD4680BD80B582B000AF03461B
:10103800FB710120FFF75AFEFB791846FFF778FE8F
:1010480000BF0837BD4680BD80B584B000AFF860EA
:101058007B600B467B8113463B812A4AFB68136001
:10106800294A7B891380294A3B891380284A7B684F
:101078001360284A3B8B1380274ABB8B1380274A6F
:101088003B8C1380264ABB8C1380264ABB6A1360AC
:10109800254ABB8D1380254A3B8E1380244ABB8E7C
:1010A8001380244A3B8F1380FFF72AFF224B01222B
:1010B8001A70224B38221A70142000F0CDFA302012
:1010C800FFF7A2FF052000F0C7FA3020FFF79CFFCA
:1010D800012000F0C1FA3020FFF796FF012000F050
:1010E800BBFA3820FFF790FF0F20FFF78DFF012094
:1010F800FFF78AFF022000F0AFFA00BF1037BD46A5
:1011080080BD00BF2C0000203000002032000020ED
:1011180034000020380000203A0000203C00002065
:101128003E0000204000002044000020460000202F
:10113800480000204A000020000000200100002094
:1011480080B584B000AF78600023FB7309E0FB7BB7
:101158007A6813441B781846FFF766FFFB7B013358
:10116800FB73FB7B0F2B05D8FB7B7A6813441B783A
:10117800002BECD100BF1037BD4680BD80B584B0D0
:1011880000AF03460A46FB711346BB71BB79013BAE
:10119800DBB203F00F03FB73FB79012B08D1FB7B58
:1011A80063F07F03FB73FB7B1846FFF72DFF07E017
:1011B800FB7B63F03F03FB73FB7B1846FFF724FFC1
:1011C80000BF1037BD4680BD80B500AF01210220A9
:1011D800FFF7D4FF00BF80BD80B58AB00AAF00F02A
:1011E800C9F900F033F800F09BF84FF40073089346
:1011F8004FF48073079380230693402305930E4B87
:1012080004934FF4004303934FF4804302934FF445
:10121800005301934FF480530093084B022201219D
:101228000748FFF711FF0748FFF78AFFFFF7CCFFD2
:101238000548FFF785FFFEE700080240000402406A
:1012480000000240CC240008DC24000880B594B0DB
:1012580000AF07F1200330220021184601F01EF9E3
:1012680007F10C0300221A605A609A60DA601A616A
:101278000023BB60284B1B6C274A43F08053136440
:10128800254B1B6C03F08053BB60BB6800237B605D
:10129800224B1B6823F44043204A43F40043136065
:1012A8001E4B1B6803F440437B607B6802233B6250
:1012B8000123FB6210233B630223BB630023FB6310
:1012C80008233B6450237B640223BB640423FB6430
:1012D80007F12003184600F063FC0346002B01D0F9
:1012E80000F0AAF80F23FB6002233B6180237B6197
:1012F8000023BB610023FB6107F10C0301211846A1
:1013080000F0BEFE0346002B01D000F095F800BFA8
:101318005037BD4680BD00BF003802400070004015
:1013280080B58AB000AF07F1140300221A605A6032
:101338009A60DA601A6100233B613B4B1B6B3A4AA7
:1013480043F080031363384B1B6B03F080033B614E
:101358003B690023FB60344B1B6B334A43F00103AA
:101368001363314B1B6B03F00103FB60FB68002325
:10137800BB602D4B1B6B2C4A43F0020313632A4BB3
:101388001B6B03F00203BB60BB6800237B60264B2A
:101398001B6B254A43F004031363234B1B6B03F0B9
:1013A80004037B607B6800220321204800F0DEFBF9
:1013B80000224FF470411E4800F0D8FB00224FF481
:1013C80070711C4800F0D2FB03237B610123BB61D1
:1013D8000023FB6100233B6207F1140319461348FD
:1013E80000F042FA4FF470437B610123BB61002394
:1013F800FB6100233B6207F1140319460C4800F017
:1014080033FA4FF470737B610123BB610023FB61E6
:1014180000233B6207F114031946064800F024FA3A
:1014280000BF2837BD4680BD00380240000002409A
:10143800000402400008024080B400AF00BFBD466F
:101448005DF8047B7047000080B483B000AF0023D0
:101458007B60104B5B6C0F4A43F4804353640D4B25
:101468005B6C03F480437B607B6800233B60094B23
:101478001B6C084A43F080531364064B1B6C03F043
:1014880080533B603B6800BF0C37BD465DF8047B6A
:10149800704700BF0038024080B400AF00BFBD46AF
:1014A8005DF8047B704780B400AFFEE780B400AFFE
:1014B800FEE780B400AFFEE780B400AFFEE780B47B
:1014C80000AF00BFBD465DF8047B704780B400AF35
:1014D80000BFBD465DF8047B704780B400AF00BF15
:1014E800BD465DF8047B704780B500AF00F094F806
:1014F80000BF80BD80B400AF084BD3F88830074ADE
:1015080043F47003C2F88830044B4FF000629A60CD
:1015180000BFBD465DF8047B704700BF00ED00E0EA
:10152800DFF834D0002103E00C4B5B584350043102
:101538000B480C4B42189A42F6D30B4A02E00023A0
:1015480042F8043B094B9A42F9D3FFF7D3FF00F066
:1015580081FFFFF741FE7047008001201025000839
:101568000000002010000020100000205000002083
:10157800FEE7000080B500AF0E4B1B680D4A43F430
:10158800007313600B4B1B680A4A43F480631360B3
:10159800084B1B68074A43F480731360032000F06C
:1015A8002FF9002000F008F8FFF74EFF0023184637
:1015B80080BD00BF003C024080B582B000AF7860BB
:1015C800124B1A68124B1B7819464FF47A73B3FB07
:1015D800F1F3B2FBF3F3184600F039F90346002B98
:1015E80001D001230EE07B680F2B0AD8002279680E
:1015F8004FF0FF3000F00FF9064A7B6813600023B4
:1016080000E0012318460837BD4680BD04000020CD
:101618000C0000200800002080B400AF064B1B78A7
:101628001A46064B1B681344044A136000BFBD46A4
:101638005DF8047B704700BF0C0000204C000020C0
:1016480080B400AF034B1B681846BD465DF8047BA9
:10165800704700BF4C00002080B584B000AF7860B0
:10166800FFF7EEFFB8607B68FB60FB68B3F1FF3FF4
:1016780005D0094B1B781A46FB681344FB6000BF72
:10168800FFF7DEFF0246BB68D31AFA689A42F7D81A
:1016980000BF1037BD4680BD0C00002080B485B067
:1016A80000AF78607B6803F00703FB600C4BDB68D6
:1016B800BB60BA684FF6FF031340BB60FB681A02B1
:1016C800BB68134343F0BF6343F40033BB60044A71
:1016D800BB68D36000BF1437BD465DF8047B704714
:1016E80000ED00E080B400AF044BDB681B0A03F098
:1016F80007031846BD465DF8047B704700ED00E01F
:1017080080B483B000AF03463960FB7197F90730A6
:10171800002B0ADB3B68DAB20C4997F90730120153
:10172800D2B20B4483F800230AE03B68DAB20849D6
:10173800FB7903F00F03043B1201D2B20B441A7673
:1017480000BF0C37BD465DF8047B704700E100E040
:1017580000ED00E080B489B000AFF860B9607A604D
:10176800FB6803F00703FB61FB69C3F10703042B64
:1017780028BF0423BB61FB690433062B02D9FB692C
:10178800033B00E000237B614FF0FF32BB6902FAA4
:1017980003F3DA43BB681A407B699A404FF0FF3184
:1017A8007B6901FA03F3D9437B680B40134318465E
:1017B8002437BD465DF8047B7047000080B582B0D1
:1017C80000AF78607B68013BB3F1807F01D30123D0
:1017D8000FE00A4A7B68013B53600F214FF0FF304E
:1017E800FFF78EFF054B00229A60044B07221A6010
:1017F800002318460837BD4680BD00BF10E000E052
:1018080080B582B000AF78607868FFF747FF00BF07
:101818000837BD4680BD80B586B000AF0346B960C5
:101828007A60FB7300237B61FFF75CFF78617A685D
:10183800B9687869FFF78EFF024697F90F301146AD
:101848001846FFF75DFF00BF1837BD4680BD80B55D
:1018580082B000AF78607868FFF7B0FF034618469B
:101868000837BD4680BD000080B489B000AF7860FD
:10187800396000237B6100233B610023BB610023A7
:10188800FB6159E10122FB6902FA03F37B613B68C2
:101898001B687A6913403B613A697B699A4240F058
:1018A80048813B685B68012B0BD03B685B68022B67
:1018B80007D03B685B68112B03D03B685B68122B31
:1018C80030D17B689B68BB61FB695B00032202FA2D
:1018D80003F3DB43BA691340BB613B68DA68FB6911
:1018E8005B0002FA03F3BA691343BB617B68BA6908
:1018F8009A607B685B68BB610122FB6902FA03F3AB
:10190800DB43BA691340BB613B685B681B0903F0A2
:101918000102FB6902FA03F3BA691343BB617B68EE
:10192800BA695A607B68DB68BB61FB695B000322AC
:1019380002FA03F3DB43BA691340BB613B689A6858
:10194800FB695B0002FA03F3BA691343BB617B6866
:10195800BA69DA603B685B68022B03D03B685B6856
:10196800122B23D1FB69DA087B68083253F822303E
:10197800BB61FB6903F007039B000F2202FA03F324
:10198800DB43BA691340BB613B681A69FB6903F022
:1019980007039B0002FA03F3BA691343BB61FB69AF
:1019A800DA087B680832B96943F822107B681B683B
:1019B800BB61FB695B00032202FA03F3DB43BA69EC
:1019C8001340BB613B685B6803F00302FB695B0083
:1019D80002FA03F3BA691343BB617B68BA691A60F8
:1019E8003B685B6803F08053002B00F0A280002363
:1019F800FB60564B5B6C554A43F480435364534B2E
:101A08005B6C03F48043FB60FB68514AFB699B08ED
:101A1800023352F82330BB61FB6903F003039B00D8
:101A28000F2202FA03F3DB43BA691340BB617B68F8
:101A3800484A934219D07B68474A934213D07B683F
:101A4800464A93420DD07B68454A934207D07B684B
:101A5800444A934201D1042308E0072306E0032304
:101A680004E0022302E0012300E00023FA6902F007
:101A7800030292009340BA691343BB613449FB697E
:101A88009B080233BA6941F82320374B1B68BB61B6
:101A98003B69DB43BA691340BB613B685B6803F48D
:101AA8008033002B03D0BA693B691343BB612E4ACC
:101AB800BB6913602C4B5B68BB613B69DB43BA694C
:101AC8001340BB613B685B6803F40033002B03D011
:101AD800BA693B691343BB61234ABB695360224B14
:101AE8009B68BB613B69DB43BA691340BB613B68D8
:101AF8005B6803F48013002B03D0BA693B69134376
:101B0800BB61194ABB699360174BDB68BB613B69D2
:101B1800DB43BA691340BB613B685B6803F400139D
:101B2800002B03D0BA693B691343BB610E4ABB69FA
:101B3800D360FB690133FB61FB690F2B7FF6A2AE13
:101B480000BF2437BD465DF8047B7047003802406B
:101B58000038014000000240000402400008024032
:101B6800000C024000100240003C014080B483B0E9
:101B780000AF78600B467B8013467B707B78002B28
:101B880003D07A887B689A6103E07B881A047B68B3
:101B98009A6100BF0C37BD465DF8047B70470000B2
:101BA80080B586B000AF78607B68002B01D1012337
:101BB8005BE27B681B6803F00103002B75D0A34B25
:101BC8009B6803F00C03042B0CD0A04B9B6803F01C
:101BD8000C03082B12D19D4B5B6803F48003B3F50B
:101BE800800F0BD1994B1B6803F40033002B5BD09B
:101BF8007B685B68002B57D1012336E27B685B6802
:101C0800B3F5803F06D1914B1B68904A43F480336B
:101C180013601DE07B685B68B3F5A02F0CD18B4B7C
:101C28001B688A4A43F480231360884B1B68874AE1
:101C380043F4803313600BE0844B1B68834A23F41E
:101C480080331360814B1B68804A23F48023136020
:101C58007B685B68002B13D0FFF7F2FC386108E063
:101C6800FFF7EEFC02463B69D31A642B01D9032324
:101C7800FBE1764B1B6803F40033002BF0D014E033
:101C8800FFF7DEFC386108E0FFF7DAFC02463B6943
:101C9800D31A642B01D90323E7E16C4B1B6803F4C7
:101CA8000033002BF0D100E000BF7B681B6803F015
:101CB8000203002B63D0654B9B6803F00C03002BD9
:101CC8000BD0624B9B6803F00C03082B1CD15F4BB5
:101CD8005B6803F48003002B16D15C4B1B6803F090
:101CE8000203002B05D07B68DB68012B01D00123A0
:101CF800BBE1564B1B6823F0F8027B681B69DB00CD
:101D0800524913430B603AE07B68DB68002B20D014
:101D18004F4B01221A60FFF793FC386108E0FFF788
:101D28008FFC02463B69D31A022B01D903239CE19D
:101D3800464B1B6803F00203002BF0D0434B1B6893
:101D480023F0F8027B681B69DB00404913430B60F2
:101D580015E03F4B00221A60FFF772FC386108E07B
:101D6800FFF76EFC02463B69D31A022B01D9032305
:101D78007BE1364B1B6803F00203002BF0D17B6834
:101D88001B6803F00803002B30D07B685B69002BCD
:101D980016D0304B01221A60FFF752FC386108E078
:101DA800FFF74EFC02463B69D31A022B01D90323E5
:101DB8005BE1264B5B6F03F00203002BF0D015E0CC
:101DC800244B00221A60FFF73BFC386108E0FFF75C
:101DD80037FC02463B69D31A022B01D9032344E19D
:101DE8001A4B5B6F03F00203002BF0D17B681B6872
:101DF80003F00403002B00F0A0800023FB75134BB5
:101E08001B6C03F08053002B0FD10023BB600F4BDA
:101E18001B6C0E4A43F0805313640C4B1B6C03F08D
:101E28008053BB60BB680123FB750B4B1B6803F435
:101E38008073002B21D1084B1B68074A43F4807339
:101E48001360FFF7FDFB386111E000BF0038024066
:101E580000004742800E474200700040FFF7F0FB49
:101E680002463B69D31A022B01D90323FDE0814BBB
:101E78001B6803F48073002BF0D07B689B68012BF0
:101E880006D17D4B1B6F7C4A43F0010313671CE0AE
:101E98007B689B68052B0CD1774B1B6F764A43F008
:101EA80004031367744B1B6F734A43F001031367F2
:101EB8000BE0714B1B6F704A23F0010313676E4BE5
:101EC8001B6F6D4A23F0040313677B689B68002B24
:101ED80015D0FFF7B5FB38610AE0FFF7B1FB024602
:101EE8003B69D31A41F28832934201D90323BCE0FB
:101EF800614B1B6F03F00203002BEED014E0FFF7D9
:101F08009FFB38610AE0FFF79BFB02463B69D31A47
:101F180041F28832934201D90323A6E0564B1B6F46
:101F280003F00203002BEED1FB7D012B05D1524BB0
:101F38001B6C514A23F0805313647B689B69002B08
:101F480000F092804C4B9B6803F00C03082B5CD08C
:101F58007B689B69022B41D1484B00221A60FFF72E
:101F68006FFB386108E0FFF76BFB02463B69D31A49
:101F7800022B01D9032378E03F4B1B6803F0007361
:101F8800002BF0D17B68DA697B681B6A1A437B688F
:101F98005B6A9B011A437B689B6A5B08013B1B04D5
:101FA8001A437B68DB6A1B06334913434B60334B88
:101FB80001221A60FFF744FB386108E0FFF740FB95
:101FC80002463B69D31A022B01D903234DE02A4B61
:101FD8001B6803F00073002BF0D045E0274B00226C
:101FE8001A60FFF72DFB386108E0FFF729FB02466E
:101FF8003B69D31A022B01D9032336E01E4B1B6819
:1020080003F00073002BF0D12EE07B689B69012B55
:1020180001D1012329E0184B5B68FB60FB6803F4DE
:1020280080027B68DB699A421CD1FB6803F03F029F
:102038007B681B6A9A4215D1FA6847F6C073134049
:102048007A68526A93420DD1FB6803F440327B6888
:102058009B6A9A4206D1FB6803F070627B68DB6A70
:102068009A4201D0012300E0002318461837BD46E4
:1020780080BD00BF00700040003802406000474249
:1020880080B584B000AF786039607B68002B01D1DF
:102098000123CCE0684B1B6803F00F033A689A42AF
:1020A8000CD9654B3A68D2B21A70634B1B6803F0BF
:1020B8000F033A689A4201D00123B8E07B681B6895
:1020C80003F00203002B20D07B681B6803F0040395
:1020D800002B05D0594B9B68584A43F4E053936052
:1020E8007B681B6803F00803002B05D0534B9B68E3
:1020F800524A43F460439360504B9B6823F0F002CC
:102108007B689B684D4913438B607B681B6803F0B1
:102118000103002B44D07B685B68012B07D1474B38
:102128001B6803F40033002B19D101237FE07B687F
:102138005B68022B03D07B685B68032B07D13F4B9E
:102148001B6803F00073002B09D101236FE03B4BA0
:102158001B6803F00203002B01D1012367E0374B12
:102168009B6823F003027B685B68344913438B60E8
:10217800FFF766FAF8600AE0FFF762FA0246FB68C2
:10218800D31A41F28832934201D903234FE02B4BF3
:102198009B6803F00C027B685B689B009A42EBD15A
:1021A800254B1B6803F00F033A689A420CD2224B66
:1021B8003A68D2B21A70204B1B6803F00F033A68D2
:1021C8009A4201D0012332E07B681B6803F00403C4
:1021D800002B08D0194B9B6823F4E0527B68DB681E
:1021E800164913438B607B681B6803F00803002BB8
:1021F80009D0124B9B6823F460427B681B69DB00A3
:102208000E4913438B6000F021F801460B4B9B6885
:102218001B0903F00F030A4AD35C21FA03F3094AA6
:102228001360094B1B681846FFF7C6F900231846C8
:102238001037BD4680BD00BF003C02400038024058
:10224800E82400080400002008000020F0B585B04C
:1022580000AF00237B600023FB6000233B6000236A
:10226800BB60504B9B6803F00C03042B07D0082B72
:1022780008D0002B40F08D804B4BBB608CE04B4B63
:10228800BB6089E0474B5B6803F03F037B60454BCD
:102298005B6803F48003002B23D0424B5B689B09E7
:1022A8004FF0000440F2FF114FF0000203EA01056D
:1022B80004EA02063D4A02FB06F1002202FB05F28F
:1022C8000A443A49A5FB0101531819467B684FF0A7
:1022D80000041A462346FEF769FB03460C46FB60DA
:1022E80049E0304B5B689B094FF0000440F2FF1156
:1022F8004FF0000203EA010504EA020629463246C5
:102308004FF000034FF00004540144EAD1644B013C
:1023180019462246491B62EB06024FF000034FF0B4
:102328000004940144EA91648B015B1A64EB020493
:102338004FF000014FF00002E20042EA5372D90068
:102348000B4614465B1944EB06044FF000014FF0AE
:102358000002A20242EA935299020B46144618461A
:1023680021467B684FF000041A462346FEF71EFB01
:1023780003460C46FB600B4B5B681B0C03F0030326
:1023880001335B003B60FA683B68B2FBF3F3BB6068
:1023980002E0054BBB6000BFBB6818461437BD465A
:1023A800F0BD00BF003802400024F40040787D01F1
:1023B80080B400AF034B1B681846BD465DF8047B2C
:1023C800704700BF0400002080B500AFFFF7F0FFA2
:1023D8000146054B9B689B0A03F00703034AD35C3D
:1023E80021FA03F3184680BD00380240F82400089B
:1023F80080B483B000AF786039607B680F221A60C0
:10240800124B9B6803F003027B685A600F4B9B6872
:1024180003F0F0027B689A600C4B9B6803F4E0526F
:102428007B68DA60094B9B68DB0803F4E0527B6841
:102438001A61074B1B6803F00F023B681A6000BF64
:102448000C37BD465DF8047B704700BF003802407A
:10245800003C024070B50D4E0D4CA41BA410002585
:10246800A54209D10B4E0C4C00F020F8A41BA41077
:102478000025A54205D170BD56F82530984701358D
:10248800EEE756F8253098470135F2E708250008A9
:1024980008250008082500080C2500080244034602
:1024A800934200D1704703F8011BF9E7F8B500BF64
:1024B800F8BC08BC9E467047F8B500BFF8BC08BC1D
:0424C8009E46704775
:1024CC00536168616E642044697673616C6172005B
:1024DC003831303139363436360000000000000017
:1024EC0000000000010203040607080900000000B8
:0424FC0001020304D2
:08250000E4E4FF7F010000008C
:04250800BD01000809
:04250C009901000829
:10251000013800000024F400100000000100000059
:0400000508001529B1
:00000001FF
